{
  "_format": "hh-sol-artifact-1",
  "contractName": "CertificateNFT",
  "sourceName": "contracts/CertificateNFT.sol",
  "abi": [
    {
      "inputs": [],
      "stateMutability": "nonpayable",
      "type": "constructor"
    },
    {
      "anonymous": false,
      "inputs": [
        {
          "indexed": true,
          "internalType": "address",
          "name": "owner",
          "type": "address"
        },
        {
          "indexed": true,
          "internalType": "address",
          "name": "approved",
          "type": "address"
        },
        {
          "indexed": true,
          "internalType": "uint256",
          "name": "tokenId",
          "type": "uint256"
        }
      ],
      "name": "Approval",
      "type": "event"
    },
    {
      "anonymous": false,
      "inputs": [
        {
          "indexed": true,
          "internalType": "address",
          "name": "owner",
          "type": "address"
        },
        {
          "indexed": true,
          "internalType": "address",
          "name": "operator",
          "type": "address"
        },
        {
          "indexed": false,
          "internalType": "bool",
          "name": "approved",
          "type": "bool"
        }
      ],
      "name": "ApprovalForAll",
      "type": "event"
    },
    {
      "anonymous": false,
      "inputs": [
        {
          "indexed": false,
          "internalType": "uint256",
          "name": "_fromTokenId",
          "type": "uint256"
        },
        {
          "indexed": false,
          "internalType": "uint256",
          "name": "_toTokenId",
          "type": "uint256"
        }
      ],
      "name": "BatchMetadataUpdate",
      "type": "event"
    },
    {
      "anonymous": false,
      "inputs": [
        {
          "indexed": true,
          "internalType": "uint256",
          "name": "tokenId",
          "type": "uint256"
        },
        {
          "indexed": true,
          "internalType": "address",
          "name": "student",
          "type": "address"
        },
        {
          "indexed": false,
          "internalType": "string",
          "name": "name",
          "type": "string"
        },
        {
          "indexed": false,
          "internalType": "string",
          "name": "institute",
          "type": "string"
        },
        {
          "indexed": false,
          "internalType": "uint256",
          "name": "issueDate",
          "type": "uint256"
        },
        {
          "indexed": false,
          "internalType": "string",
          "name": "certificateType",
          "type": "string"
        }
      ],
      "name": "CertificateIssued",
      "type": "event"
    },
    {
      "anonymous": false,
      "inputs": [
        {
          "indexed": true,
          "internalType": "uint256",
          "name": "requestId",
          "type": "uint256"
        },
        {
          "indexed": true,
          "internalType": "address",
          "name": "student",
          "type": "address"
        },
        {
          "indexed": true,
          "internalType": "address",
          "name": "institute",
          "type": "address"
        }
      ],
      "name": "CertificateRequestApproved",
      "type": "event"
    },
    {
      "anonymous": false,
      "inputs": [
        {
          "indexed": true,
          "internalType": "uint256",
          "name": "requestId",
          "type": "uint256"
        },
        {
          "indexed": true,
          "internalType": "address",
          "name": "student",
          "type": "address"
        },
        {
          "indexed": true,
          "internalType": "address",
          "name": "institute",
          "type": "address"
        },
        {
          "indexed": false,
          "internalType": "string",
          "name": "name",
          "type": "string"
        },
        {
          "indexed": false,
          "internalType": "string",
          "name": "message",
          "type": "string"
        },
        {
          "indexed": false,
          "internalType": "string",
          "name": "studentMetadataHash",
          "type": "string"
        }
      ],
      "name": "CertificateRequested",
      "type": "event"
    },
    {
      "anonymous": false,
      "inputs": [
        {
          "indexed": false,
          "internalType": "uint256",
          "name": "_tokenId",
          "type": "uint256"
        }
      ],
      "name": "MetadataUpdate",
      "type": "event"
    },
    {
      "anonymous": false,
      "inputs": [
        {
          "indexed": true,
          "internalType": "address",
          "name": "previousOwner",
          "type": "address"
        },
        {
          "indexed": true,
          "internalType": "address",
          "name": "newOwner",
          "type": "address"
        }
      ],
      "name": "OwnershipTransferred",
      "type": "event"
    },
    {
      "anonymous": false,
      "inputs": [
        {
          "indexed": true,
          "internalType": "address",
          "name": "from",
          "type": "address"
        },
        {
          "indexed": true,
          "internalType": "address",
          "name": "to",
          "type": "address"
        },
        {
          "indexed": true,
          "internalType": "uint256",
          "name": "tokenId",
          "type": "uint256"
        }
      ],
      "name": "Transfer",
      "type": "event"
    },
    {
      "inputs": [
        {
          "internalType": "address",
          "name": "to",
          "type": "address"
        },
        {
          "internalType": "uint256",
          "name": "tokenId",
          "type": "uint256"
        }
      ],
      "name": "approve",
      "outputs": [],
      "stateMutability": "nonpayable",
      "type": "function"
    },
    {
      "inputs": [
        {
          "internalType": "uint256",
          "name": "requestId",
          "type": "uint256"
        },
        {
          "internalType": "string",
          "name": "certificateType",
          "type": "string"
        },
        {
          "internalType": "string",
          "name": "tokenURI",
          "type": "string"
        },
        {
          "internalType": "string",
          "name": "institute",
          "type": "string"
        }
      ],
      "name": "approveCertificateRequest",
      "outputs": [],
      "stateMutability": "nonpayable",
      "type": "function"
    },
    {
      "inputs": [
        {
          "internalType": "address",
          "name": "institute",
          "type": "address"
        }
      ],
      "name": "authorizeInstitute",
      "outputs": [],
      "stateMutability": "nonpayable",
      "type": "function"
    },
    {
      "inputs": [
        {
          "internalType": "address",
          "name": "",
          "type": "address"
        }
      ],
      "name": "authorizedInstitutes",
      "outputs": [
        {
          "internalType": "bool",
          "name": "",
          "type": "bool"
        }
      ],
      "stateMutability": "view",
      "type": "function"
    },
    {
      "inputs": [
        {
          "internalType": "address",
          "name": "owner",
          "type": "address"
        }
      ],
      "name": "balanceOf",
      "outputs": [
        {
          "internalType": "uint256",
          "name": "",
          "type": "uint256"
        }
      ],
      "stateMutability": "view",
      "type": "function"
    },
    {
      "inputs": [
        {
          "internalType": "uint256",
          "name": "",
          "type": "uint256"
        }
      ],
      "name": "certificateRequests",
      "outputs": [
        {
          "internalType": "address",
          "name": "student",
          "type": "address"
        },
        {
          "internalType": "string",
          "name": "name",
          "type": "string"
        },
        {
          "internalType": "string",
          "name": "message",
          "type": "string"
        },
        {
          "internalType": "string",
          "name": "studentMetadataHash",
          "type": "string"
        },
        {
          "internalType": "bool",
          "name": "approved",
          "type": "bool"
        }
      ],
      "stateMutability": "view",
      "type": "function"
    },
    {
      "inputs": [
        {
          "internalType": "uint256",
          "name": "",
          "type": "uint256"
        }
      ],
      "name": "certificates",
      "outputs": [
        {
          "internalType": "string",
          "name": "name",
          "type": "string"
        },
        {
          "internalType": "string",
          "name": "institute",
          "type": "string"
        },
        {
          "internalType": "uint256",
          "name": "issueDate",
          "type": "uint256"
        },
        {
          "internalType": "string",
          "name": "certificateType",
          "type": "string"
        },
        {
          "internalType": "address",
          "name": "student",
          "type": "address"
        }
      ],
      "stateMutability": "view",
      "type": "function"
    },
    {
      "inputs": [
        {
          "internalType": "uint256",
          "name": "tokenId",
          "type": "uint256"
        }
      ],
      "name": "getApproved",
      "outputs": [
        {
          "internalType": "address",
          "name": "",
          "type": "address"
        }
      ],
      "stateMutability": "view",
      "type": "function"
    },
    {
      "inputs": [
        {
          "internalType": "uint256",
          "name": "tokenId",
          "type": "uint256"
        }
      ],
      "name": "getCertificateDetails",
      "outputs": [
        {
          "internalType": "string",
          "name": "name",
          "type": "string"
        },
        {
          "internalType": "string",
          "name": "institute",
          "type": "string"
        },
        {
          "internalType": "uint256",
          "name": "issueDate",
          "type": "uint256"
        },
        {
          "internalType": "string",
          "name": "certificateType",
          "type": "string"
        },
        {
          "internalType": "address",
          "name": "student",
          "type": "address"
        }
      ],
      "stateMutability": "view",
      "type": "function"
    },
    {
      "inputs": [
        {
          "internalType": "address",
          "name": "student",
          "type": "address"
        }
      ],
      "name": "getStudentCertificates",
      "outputs": [
        {
          "internalType": "uint256[]",
          "name": "",
          "type": "uint256[]"
        }
      ],
      "stateMutability": "view",
      "type": "function"
    },
    {
      "inputs": [
        {
          "internalType": "address",
          "name": "owner",
          "type": "address"
        },
        {
          "internalType": "address",
          "name": "operator",
          "type": "address"
        }
      ],
      "name": "isApprovedForAll",
      "outputs": [
        {
          "internalType": "bool",
          "name": "",
          "type": "bool"
        }
      ],
      "stateMutability": "view",
      "type": "function"
    },
    {
      "inputs": [
        {
          "internalType": "address",
          "name": "student",
          "type": "address"
        },
        {
          "internalType": "string",
          "name": "name",
          "type": "string"
        },
        {
          "internalType": "string",
          "name": "institute",
          "type": "string"
        },
        {
          "internalType": "string",
          "name": "certificateType",
          "type": "string"
        },
        {
          "internalType": "string",
          "name": "tokenURI",
          "type": "string"
        }
      ],
      "name": "issueCertificate",
      "outputs": [
        {
          "internalType": "uint256",
          "name": "",
          "type": "uint256"
        }
      ],
      "stateMutability": "nonpayable",
      "type": "function"
    },
    {
      "inputs": [],
      "name": "name",
      "outputs": [
        {
          "internalType": "string",
          "name": "",
          "type": "string"
        }
      ],
      "stateMutability": "view",
      "type": "function"
    },
    {
      "inputs": [],
      "name": "owner",
      "outputs": [
        {
          "internalType": "address",
          "name": "",
          "type": "address"
        }
      ],
      "stateMutability": "view",
      "type": "function"
    },
    {
      "inputs": [
        {
          "internalType": "uint256",
          "name": "tokenId",
          "type": "uint256"
        }
      ],
      "name": "ownerOf",
      "outputs": [
        {
          "internalType": "address",
          "name": "",
          "type": "address"
        }
      ],
      "stateMutability": "view",
      "type": "function"
    },
    {
      "inputs": [],
      "name": "renounceOwnership",
      "outputs": [],
      "stateMutability": "nonpayable",
      "type": "function"
    },
    {
      "inputs": [
        {
          "internalType": "address",
          "name": "institute",
          "type": "address"
        },
        {
          "internalType": "string",
          "name": "name",
          "type": "string"
        },
        {
          "internalType": "string",
          "name": "message",
          "type": "string"
        },
        {
          "internalType": "string",
          "name": "studentMetadataHash",
          "type": "string"
        }
      ],
      "name": "requestCertificate",
      "outputs": [],
      "stateMutability": "nonpayable",
      "type": "function"
    },
    {
      "inputs": [],
      "name": "requestCounter",
      "outputs": [
        {
          "internalType": "uint256",
          "name": "",
          "type": "uint256"
        }
      ],
      "stateMutability": "view",
      "type": "function"
    },
    {
      "inputs": [
        {
          "internalType": "address",
          "name": "institute",
          "type": "address"
        }
      ],
      "name": "revokeInstitute",
      "outputs": [],
      "stateMutability": "nonpayable",
      "type": "function"
    },
    {
      "inputs": [
        {
          "internalType": "address",
          "name": "from",
          "type": "address"
        },
        {
          "internalType": "address",
          "name": "to",
          "type": "address"
        },
        {
          "internalType": "uint256",
          "name": "tokenId",
          "type": "uint256"
        }
      ],
      "name": "safeTransferFrom",
      "outputs": [],
      "stateMutability": "nonpayable",
      "type": "function"
    },
    {
      "inputs": [
        {
          "internalType": "address",
          "name": "from",
          "type": "address"
        },
        {
          "internalType": "address",
          "name": "to",
          "type": "address"
        },
        {
          "internalType": "uint256",
          "name": "tokenId",
          "type": "uint256"
        },
        {
          "internalType": "bytes",
          "name": "data",
          "type": "bytes"
        }
      ],
      "name": "safeTransferFrom",
      "outputs": [],
      "stateMutability": "nonpayable",
      "type": "function"
    },
    {
      "inputs": [
        {
          "internalType": "address",
          "name": "operator",
          "type": "address"
        },
        {
          "internalType": "bool",
          "name": "approved",
          "type": "bool"
        }
      ],
      "name": "setApprovalForAll",
      "outputs": [],
      "stateMutability": "nonpayable",
      "type": "function"
    },
    {
      "inputs": [
        {
          "internalType": "address",
          "name": "",
          "type": "address"
        },
        {
          "internalType": "uint256",
          "name": "",
          "type": "uint256"
        }
      ],
      "name": "studentCertificates",
      "outputs": [
        {
          "internalType": "uint256",
          "name": "",
          "type": "uint256"
        }
      ],
      "stateMutability": "view",
      "type": "function"
    },
    {
      "inputs": [
        {
          "internalType": "bytes4",
          "name": "interfaceId",
          "type": "bytes4"
        }
      ],
      "name": "supportsInterface",
      "outputs": [
        {
          "internalType": "bool",
          "name": "",
          "type": "bool"
        }
      ],
      "stateMutability": "view",
      "type": "function"
    },
    {
      "inputs": [],
      "name": "symbol",
      "outputs": [
        {
          "internalType": "string",
          "name": "",
          "type": "string"
        }
      ],
      "stateMutability": "view",
      "type": "function"
    },
    {
      "inputs": [
        {
          "internalType": "uint256",
          "name": "tokenId",
          "type": "uint256"
        }
      ],
      "name": "tokenURI",
      "outputs": [
        {
          "internalType": "string",
          "name": "",
          "type": "string"
        }
      ],
      "stateMutability": "view",
      "type": "function"
    },
    {
      "inputs": [
        {
          "internalType": "address",
          "name": "from",
          "type": "address"
        },
        {
          "internalType": "address",
          "name": "to",
          "type": "address"
        },
        {
          "internalType": "uint256",
          "name": "tokenId",
          "type": "uint256"
        }
      ],
      "name": "transferFrom",
      "outputs": [],
      "stateMutability": "nonpayable",
      "type": "function"
    },
    {
      "inputs": [
        {
          "internalType": "address",
          "name": "newOwner",
          "type": "address"
        }
      ],
      "name": "transferOwnership",
      "outputs": [],
      "stateMutability": "nonpayable",
      "type": "function"
    }
  ],
  "bytecode": "0x608060405234801561001057600080fd5b506040518060400160405280601481526020017f41636164656d69632043657274696669636174650000000000000000000000008152506040518060400160405280600481526020016310d1549560e21b81525081600090816100739190610193565b5060016100808282610193565b50505061009961009461009e60201b60201c565b6100a2565b610251565b3390565b600780546001600160a01b038381166001600160a01b0319831681179093556040519116919082907f8be0079c531659141344cd1fd0a4f28419497f9722a3daafe3b4186f6b6457e090600090a35050565b634e487b7160e01b600052604160045260246000fd5b600181811c9082168061011e57607f821691505b60208210810361013e57634e487b7160e01b600052602260045260246000fd5b50919050565b601f82111561018e57806000526020600020601f840160051c8101602085101561016b5750805b601f840160051c820191505b8181101561018b5760008155600101610177565b50505b505050565b81516001600160401b038111156101ac576101ac6100f4565b6101c0816101ba845461010a565b84610144565b6020601f8211600181146101f457600083156101dc5750848201515b600019600385901b1c1916600184901b17845561018b565b600084815260208120601f198516915b828110156102245787850151825560209485019460019092019101610204565b50848210156102425786840151600019600387901b60f8161c191681555b50505050600190811b01905550565b6127e2806102606000396000f3fe608060405234801561001057600080fd5b50600436106101c45760003560e01c80637aa7155b116100f9578063b88d4fde11610097578063e985e9c511610071578063e985e9c5146103e0578063e9dd92ee1461041c578063ebc63bc01461042f578063f2fde38b1461044f57600080fd5b8063b88d4fde146103a7578063c3934f0e146103ba578063c87b56dd146103cd57600080fd5b8063973a814e116100d3578063973a814e14610365578063a22cb4651461036e578063a901fe5e14610381578063b62710d91461039457600080fd5b80637aa7155b146103395780638da5cb5b1461034c57806395d89b411461035d57600080fd5b80635244f9e1116101665780636352211e116101405780636352211e146102d9578063663b3e22146102ec57806370a0823114610310578063715018a61461033157600080fd5b80635244f9e11461027f57806362594b24146102a25780636332a4ea146102b557600080fd5b8063095ea7b3116101a2578063095ea7b31461023157806323b872dd1461024657806331dc38ac1461025957806342842e0e1461026c57600080fd5b806301ffc9a7146101c957806306fdde03146101f1578063081812fc14610206575b600080fd5b6101dc6101d7366004611eee565b610462565b60405190151581526020015b60405180910390f35b6101f961048d565b6040516101e89190611f5b565b610219610214366004611f6e565b61051f565b6040516001600160a01b0390911681526020016101e8565b61024461023f366004611fa3565b610546565b005b610244610254366004611fcd565b610660565b6102446102673660046120b8565b610691565b61024461027a366004611fcd565b610885565b6101dc61028d366004612153565b600b6020526000908152604090205460ff1681565b6102446102b0366004612153565b6108a0565b6102c86102c3366004611f6e565b6108cc565b6040516101e895949392919061216e565b6102196102e7366004611f6e565b610aa0565b6102ff6102fa366004611f6e565b610b00565b6040516101e89594939291906121cd565b61032361031e366004612153565b610ccf565b6040519081526020016101e8565b610244610d55565b610244610347366004612153565b610d69565b6007546001600160a01b0316610219565b6101f9610d92565b610323600d5481565b61024461037c366004612227565b610da1565b6102ff61038f366004611f6e565b610db0565b6102446103a2366004612263565b610fd5565b6102446103b536600461229d565b6110ea565b6103236103c8366004611fa3565b611122565b6101f96103db366004611f6e565b611153565b6101dc6103ee36600461230c565b6001600160a01b03918216600090815260056020908152604080832093909416825291909152205460ff1690565b61032361042a36600461233f565b611263565b61044261043d366004612153565b611412565b6040516101e8919061240c565b61024461045d366004612153565b61147e565b60006001600160e01b03198216632483248360e11b14806104875750610487826114f7565b92915050565b60606000805461049c9061244f565b80601f01602080910402602001604051908101604052809291908181526020018280546104c89061244f565b80156105155780601f106104ea57610100808354040283529160200191610515565b820191906000526020600020905b8154815290600101906020018083116104f857829003601f168201915b5050505050905090565b600061052a82611547565b506000908152600460205260409020546001600160a01b031690565b600061055182610aa0565b9050806001600160a01b0316836001600160a01b0316036105c35760405162461bcd60e51b815260206004820152602160248201527f4552433732313a20617070726f76616c20746f2063757272656e74206f776e656044820152603960f91b60648201526084015b60405180910390fd5b336001600160a01b03821614806105df57506105df81336103ee565b6106515760405162461bcd60e51b815260206004820152603d60248201527f4552433732313a20617070726f76652063616c6c6572206973206e6f7420746f60448201527f6b656e206f776e6572206f7220617070726f76656420666f7220616c6c00000060648201526084016105ba565b61065b83836115a6565b505050565b61066a3382611614565b6106865760405162461bcd60e51b81526004016105ba90612489565b61065b838383611692565b6000848152600c6020526040902080546001600160a01b03166106e85760405162461bcd60e51b815260206004820152600f60248201526e125b9d985b1a59081c995c5d595cdd608a1b60448201526064016105ba565b336000908152600b602052604090205460ff166107475760405162461bcd60e51b815260206004820152601960248201527f4e6f7420617574686f72697a656420746f20617070726f76650000000000000060448201526064016105ba565b600481015460ff161561078f5760405162461bcd60e51b815260206004820152601060248201526f105b1c9958591e48185c1c1c9bdd995960821b60448201526064016105ba565b8054600182018054610835926001600160a01b031691906107af9061244f565b80601f01602080910402602001604051908101604052809291908181526020018280546107db9061244f565b80156108285780601f106107fd57610100808354040283529160200191610828565b820191906000526020600020905b81548152906001019060200180831161080b57829003601f168201915b5050505050848787611263565b5060048101805460ff19166001179055805460405133916001600160a01b03169087907ff1ee664cbcdee0c3ae1e95435c6ebcd4f2b82cdc8151eb101a0c1faa00e7bf7290600090a45050505050565b61065b838383604051806020016040528060008152506110ea565b6108a86117f6565b6001600160a01b03166000908152600b60205260409020805460ff19166001179055565b600c60205260009081526040902080546001820180546001600160a01b0390921692916108f89061244f565b80601f01602080910402602001604051908101604052809291908181526020018280546109249061244f565b80156109715780601f1061094657610100808354040283529160200191610971565b820191906000526020600020905b81548152906001019060200180831161095457829003601f168201915b5050505050908060020180546109869061244f565b80601f01602080910402602001604051908101604052809291908181526020018280546109b29061244f565b80156109ff5780601f106109d4576101008083540402835291602001916109ff565b820191906000526020600020905b8154815290600101906020018083116109e257829003601f168201915b505050505090806003018054610a149061244f565b80601f0160208091040260200160405190810160405280929190818152602001828054610a409061244f565b8015610a8d5780601f10610a6257610100808354040283529160200191610a8d565b820191906000526020600020905b815481529060010190602001808311610a7057829003601f168201915b5050506004909301549192505060ff1685565b6000818152600260205260408120546001600160a01b0316806104875760405162461bcd60e51b8152602060048201526018602482015277115490cdcc8c4e881a5b9d985b1a59081d1bdad95b88125160421b60448201526064016105ba565b600960205260009081526040902080548190610b1b9061244f565b80601f0160208091040260200160405190810160405280929190818152602001828054610b479061244f565b8015610b945780601f10610b6957610100808354040283529160200191610b94565b820191906000526020600020905b815481529060010190602001808311610b7757829003601f168201915b505050505090806001018054610ba99061244f565b80601f0160208091040260200160405190810160405280929190818152602001828054610bd59061244f565b8015610c225780601f10610bf757610100808354040283529160200191610c22565b820191906000526020600020905b815481529060010190602001808311610c0557829003601f168201915b505050505090806002015490806003018054610c3d9061244f565b80601f0160208091040260200160405190810160405280929190818152602001828054610c699061244f565b8015610cb65780601f10610c8b57610100808354040283529160200191610cb6565b820191906000526020600020905b815481529060010190602001808311610c9957829003601f168201915b505050600490930154919250506001600160a01b031685565b60006001600160a01b038216610d395760405162461bcd60e51b815260206004820152602960248201527f4552433732313a2061646472657373207a65726f206973206e6f7420612076616044820152683634b21037bbb732b960b91b60648201526084016105ba565b506001600160a01b031660009081526003602052604090205490565b610d5d6117f6565b610d676000611850565b565b610d716117f6565b6001600160a01b03166000908152600b60205260409020805460ff19169055565b60606001805461049c9061244f565b610dac3383836118a2565b5050565b60608060006060600080600960008881526020019081526020016000206040518060a0016040529081600082018054610de89061244f565b80601f0160208091040260200160405190810160405280929190818152602001828054610e149061244f565b8015610e615780601f10610e3657610100808354040283529160200191610e61565b820191906000526020600020905b815481529060010190602001808311610e4457829003601f168201915b50505050508152602001600182018054610e7a9061244f565b80601f0160208091040260200160405190810160405280929190818152602001828054610ea69061244f565b8015610ef35780601f10610ec857610100808354040283529160200191610ef3565b820191906000526020600020905b815481529060010190602001808311610ed657829003601f168201915b5050505050815260200160028201548152602001600382018054610f169061244f565b80601f0160208091040260200160405190810160405280929190818152602001828054610f429061244f565b8015610f8f5780601f10610f6457610100808354040283529160200191610f8f565b820191906000526020600020905b815481529060010190602001808311610f7257829003601f168201915b5050509183525050600491909101546001600160a01b031660209182015281519082015160408301516060840151608090940151929b919a509850919650945092505050565b600d8054906000610fe5836124d6565b90915550506040805160a081018252338152602080820186815282840186905260608301859052600060808401819052600d548152600c909252929020815181546001600160a01b0319166001600160a01b0390911617815591519091906001820190611052908261254b565b5060408201516002820190611067908261254b565b506060820151600382019061107c908261254b565b50608091909101516004909101805460ff1916911515919091179055600d546040516001600160a01b0386169133917f6cfbe1a9708ed98d926c488c5da68922a21c12ba065f040c172144ce628b849a906110dc90889088908890612609565b60405180910390a450505050565b6110f43383611614565b6111105760405162461bcd60e51b81526004016105ba90612489565b61111c84848484611970565b50505050565b600a602052816000526040600020818154811061113e57600080fd5b90600052602060002001600091509150505481565b606061115e82611547565b600082815260066020526040812080546111779061244f565b80601f01602080910402602001604051908101604052809291908181526020018280546111a39061244f565b80156111f05780601f106111c5576101008083540402835291602001916111f0565b820191906000526020600020905b8154815290600101906020018083116111d357829003601f168201915b50505050509050600061120e60408051602081019091526000815290565b90508051600003611220575092915050565b81511561125257808260405160200161123a92919061264c565b60405160208183030381529060405292505050919050565b61125b846119a3565b949350505050565b336000908152600b602052604081205460ff166112ce5760405162461bcd60e51b8152602060048201526024808201527f4e6f7420617574686f72697a656420746f2069737375652063657274696669636044820152636174657360e01b60648201526084016105ba565b6112dc600880546001019055565b60006112e760085490565b90506112f38782611a17565b6112fd8184611ba2565b6040805160a08101825287815260208082018890524282840152606082018790526001600160a01b038a166080830152600084815260099091529190912081518190611349908261254b565b506020820151600182019061135e908261254b565b50604082015160028201556060820151600382019061137d908261254b565b5060809190910151600490910180546001600160a01b0319166001600160a01b0392831617905587166000818152600a60209081526040808320805460018101825590845291909220018390555182907f55771991ffa371c9dd2db01cda7cd1f387b5c4799385b30ac842da0ba782451890611400908a908a9042908b9061267b565b60405180910390a39695505050505050565b6001600160a01b0381166000908152600a602090815260409182902080548351818402810184019094528084526060939283018282801561147257602002820191906000526020600020905b81548152602001906001019080831161145e575b50505050509050919050565b6114866117f6565b6001600160a01b0381166114eb5760405162461bcd60e51b815260206004820152602660248201527f4f776e61626c653a206e6577206f776e657220697320746865207a65726f206160448201526564647265737360d01b60648201526084016105ba565b6114f481611850565b50565b60006001600160e01b031982166380ac58cd60e01b148061152857506001600160e01b03198216635b5e139f60e01b145b8061048757506301ffc9a760e01b6001600160e01b0319831614610487565b6000818152600260205260409020546001600160a01b03166114f45760405162461bcd60e51b8152602060048201526018602482015277115490cdcc8c4e881a5b9d985b1a59081d1bdad95b88125160421b60448201526064016105ba565b600081815260046020526040902080546001600160a01b0319166001600160a01b03841690811790915581906115db82610aa0565b6001600160a01b03167f8c5be1e5ebec7d5bd14f71427d1e84f3dd0314c0f7b2291e5b200ac8c7c3b92560405160405180910390a45050565b60008061162083610aa0565b9050806001600160a01b0316846001600160a01b0316148061166757506001600160a01b0380821660009081526005602090815260408083209388168352929052205460ff165b8061125b5750836001600160a01b03166116808461051f565b6001600160a01b031614949350505050565b826001600160a01b03166116a582610aa0565b6001600160a01b0316146116cb5760405162461bcd60e51b81526004016105ba906126c5565b6001600160a01b03821661172d5760405162461bcd60e51b8152602060048201526024808201527f4552433732313a207472616e7366657220746f20746865207a65726f206164646044820152637265737360e01b60648201526084016105ba565b826001600160a01b031661174082610aa0565b6001600160a01b0316146117665760405162461bcd60e51b81526004016105ba906126c5565b600081815260046020908152604080832080546001600160a01b03199081169091556001600160a01b0387811680865260038552838620805460001901905590871680865283862080546001019055868652600290945282852080549092168417909155905184937fddf252ad1be2c89b69c2b068fc378daa952ba7f163c4a11628f55a4df523b3ef91a4505050565b6007546001600160a01b03163314610d675760405162461bcd60e51b815260206004820181905260248201527f4f776e61626c653a2063616c6c6572206973206e6f7420746865206f776e657260448201526064016105ba565b600780546001600160a01b038381166001600160a01b0319831681179093556040519116919082907f8be0079c531659141344cd1fd0a4f28419497f9722a3daafe3b4186f6b6457e090600090a35050565b816001600160a01b0316836001600160a01b0316036119035760405162461bcd60e51b815260206004820152601960248201527f4552433732313a20617070726f766520746f2063616c6c65720000000000000060448201526064016105ba565b6001600160a01b03838116600081815260056020908152604080832094871680845294825291829020805460ff191686151590811790915591519182527f17307eab39ab6107e8899845ad3d59bd9653f200f220920489ca2b5937696c31910160405180910390a3505050565b61197b848484611692565b61198784848484611c6d565b61111c5760405162461bcd60e51b81526004016105ba9061270a565b60606119ae82611547565b60006119c560408051602081019091526000815290565b905060008151116119e55760405180602001604052806000815250611a10565b806119ef84611d6e565b604051602001611a0092919061264c565b6040516020818303038152906040525b9392505050565b6001600160a01b038216611a6d5760405162461bcd60e51b815260206004820181905260248201527f4552433732313a206d696e7420746f20746865207a65726f206164647265737360448201526064016105ba565b6000818152600260205260409020546001600160a01b031615611ad25760405162461bcd60e51b815260206004820152601c60248201527f4552433732313a20746f6b656e20616c7265616479206d696e7465640000000060448201526064016105ba565b6000818152600260205260409020546001600160a01b031615611b375760405162461bcd60e51b815260206004820152601c60248201527f4552433732313a20746f6b656e20616c7265616479206d696e7465640000000060448201526064016105ba565b6001600160a01b038216600081815260036020908152604080832080546001019055848352600290915280822080546001600160a01b0319168417905551839291907fddf252ad1be2c89b69c2b068fc378daa952ba7f163c4a11628f55a4df523b3ef908290a45050565b6000828152600260205260409020546001600160a01b0316611c1d5760405162461bcd60e51b815260206004820152602e60248201527f45524337323155524953746f726167653a2055524920736574206f66206e6f6e60448201526d32bc34b9ba32b73a103a37b5b2b760911b60648201526084016105ba565b6000828152600660205260409020611c35828261254b565b506040518281527ff8e1a15aba9398e019f0b49df1a4fde98ee17ae345cb5f6b5e2c27f5033e8ce79060200160405180910390a15050565b60006001600160a01b0384163b15611d6357604051630a85bd0160e11b81526001600160a01b0385169063150b7a0290611cb190339089908890889060040161275c565b6020604051808303816000875af1925050508015611cec575060408051601f3d908101601f19168201909252611ce99181019061278f565b60015b611d49573d808015611d1a576040519150601f19603f3d011682016040523d82523d6000602084013e611d1f565b606091505b508051600003611d415760405162461bcd60e51b81526004016105ba9061270a565b805181602001fd5b6001600160e01b031916630a85bd0160e11b14905061125b565b506001949350505050565b60606000611d7b83611e00565b60010190506000816001600160401b03811115611d9a57611d9a61200a565b6040519080825280601f01601f191660200182016040528015611dc4576020820181803683370190505b5090508181016020015b600019016f181899199a1a9b1b9c1cb0b131b232b360811b600a86061a8153600a8504945084611dce57509392505050565b60008072184f03e93ff9f4daa797ed6e38ed64bf6a1f0160401b8310611e3f5772184f03e93ff9f4daa797ed6e38ed64bf6a1f0160401b830492506040015b6d04ee2d6d415b85acef81000000008310611e6b576d04ee2d6d415b85acef8100000000830492506020015b662386f26fc100008310611e8957662386f26fc10000830492506010015b6305f5e1008310611ea1576305f5e100830492506008015b6127108310611eb557612710830492506004015b60648310611ec7576064830492506002015b600a83106104875760010192915050565b6001600160e01b0319811681146114f457600080fd5b600060208284031215611f0057600080fd5b8135611a1081611ed8565b60005b83811015611f26578181015183820152602001611f0e565b50506000910152565b60008151808452611f47816020860160208601611f0b565b601f01601f19169290920160200192915050565b602081526000611a106020830184611f2f565b600060208284031215611f8057600080fd5b5035919050565b80356001600160a01b0381168114611f9e57600080fd5b919050565b60008060408385031215611fb657600080fd5b611fbf83611f87565b946020939093013593505050565b600080600060608486031215611fe257600080fd5b611feb84611f87565b9250611ff960208501611f87565b929592945050506040919091013590565b634e487b7160e01b600052604160045260246000fd5b6000806001600160401b0384111561203a5761203a61200a565b50604051601f19601f85018116603f011681018181106001600160401b03821117156120685761206861200a565b60405283815290508082840185101561208057600080fd5b83836020830137600060208583010152509392505050565b600082601f8301126120a957600080fd5b611a1083833560208501612020565b600080600080608085870312156120ce57600080fd5b8435935060208501356001600160401b038111156120eb57600080fd5b6120f787828801612098565b93505060408501356001600160401b0381111561211357600080fd5b61211f87828801612098565b92505060608501356001600160401b0381111561213b57600080fd5b61214787828801612098565b91505092959194509250565b60006020828403121561216557600080fd5b611a1082611f87565b6001600160a01b038616815260a06020820181905260009061219290830187611f2f565b82810360408401526121a48187611f2f565b905082810360608401526121b88186611f2f565b91505082151560808301529695505050505050565b60a0815260006121e060a0830188611f2f565b82810360208401526121f28188611f2f565b9050856040840152828103606084015261220c8186611f2f565b91505060018060a01b03831660808301529695505050505050565b6000806040838503121561223a57600080fd5b61224383611f87565b91506020830135801515811461225857600080fd5b809150509250929050565b6000806000806080858703121561227957600080fd5b61228285611f87565b935060208501356001600160401b038111156120eb57600080fd5b600080600080608085870312156122b357600080fd5b6122bc85611f87565b93506122ca60208601611f87565b92506040850135915060608501356001600160401b038111156122ec57600080fd5b8501601f810187136122fd57600080fd5b61214787823560208401612020565b6000806040838503121561231f57600080fd5b61232883611f87565b915061233660208401611f87565b90509250929050565b600080600080600060a0868803121561235757600080fd5b61236086611f87565b945060208601356001600160401b0381111561237b57600080fd5b61238788828901612098565b94505060408601356001600160401b038111156123a357600080fd5b6123af88828901612098565b93505060608601356001600160401b038111156123cb57600080fd5b6123d788828901612098565b92505060808601356001600160401b038111156123f357600080fd5b6123ff88828901612098565b9150509295509295909350565b602080825282518282018190526000918401906040840190835b81811015612444578351835260209384019390920191600101612426565b509095945050505050565b600181811c9082168061246357607f821691505b60208210810361248357634e487b7160e01b600052602260045260246000fd5b50919050565b6020808252602d908201527f4552433732313a2063616c6c6572206973206e6f7420746f6b656e206f776e6560408201526c1c881bdc88185c1c1c9bdd9959609a1b606082015260800190565b6000600182016124f657634e487b7160e01b600052601160045260246000fd5b5060010190565b601f82111561065b57806000526020600020601f840160051c810160208510156125245750805b601f840160051c820191505b818110156125445760008155600101612530565b5050505050565b81516001600160401b038111156125645761256461200a565b61257881612572845461244f565b846124fd565b6020601f8211600181146125ac57600083156125945750848201515b600019600385901b1c1916600184901b178455612544565b600084815260208120601f198516915b828110156125dc57878501518255602094850194600190920191016125bc565b50848210156125fa5786840151600019600387901b60f8161c191681555b50505050600190811b01905550565b60608152600061261c6060830186611f2f565b828103602084015261262e8186611f2f565b905082810360408401526126428185611f2f565b9695505050505050565b6000835161265e818460208801611f0b565b835190830190612672818360208801611f0b565b01949350505050565b60808152600061268e6080830187611f2f565b82810360208401526126a08187611f2f565b905084604084015282810360608401526126ba8185611f2f565b979650505050505050565b60208082526025908201527f4552433732313a207472616e736665722066726f6d20696e636f72726563742060408201526437bbb732b960d91b606082015260800190565b60208082526032908201527f4552433732313a207472616e7366657220746f206e6f6e20455243373231526560408201527131b2b4bb32b91034b6b83632b6b2b73a32b960711b606082015260800190565b6001600160a01b038581168252841660208201526040810183905260806060820181905260009061264290830184611f2f565b6000602082840312156127a157600080fd5b8151611a1081611ed856fea2646970667358221220379b1d1f291018d0e3109ad1cba64bb6d14a1a049ce8aa394d448013cb95d07564736f6c634300081c0033",
  "linkReferences": {},
  "deployedLinkReferences": {}
}