{
  "_format": "hh-sol-artifact-1",
  "contractName": "CertificateNFT",
  "sourceName": "contracts/CertificateNFT.sol",
  "abi": [
    {
      "inputs": [],
      "stateMutability": "nonpayable",
      "type": "constructor"
    },
    {
      "anonymous": false,
      "inputs": [
        {
          "indexed": true,
          "internalType": "address",
          "name": "owner",
          "type": "address"
        },
        {
          "indexed": true,
          "internalType": "address",
          "name": "approved",
          "type": "address"
        },
        {
          "indexed": true,
          "internalType": "uint256",
          "name": "tokenId",
          "type": "uint256"
        }
      ],
      "name": "Approval",
      "type": "event"
    },
    {
      "anonymous": false,
      "inputs": [
        {
          "indexed": true,
          "internalType": "address",
          "name": "owner",
          "type": "address"
        },
        {
          "indexed": true,
          "internalType": "address",
          "name": "operator",
          "type": "address"
        },
        {
          "indexed": false,
          "internalType": "bool",
          "name": "approved",
          "type": "bool"
        }
      ],
      "name": "ApprovalForAll",
      "type": "event"
    },
    {
      "anonymous": false,
      "inputs": [
        {
          "indexed": false,
          "internalType": "uint256",
          "name": "_fromTokenId",
          "type": "uint256"
        },
        {
          "indexed": false,
          "internalType": "uint256",
          "name": "_toTokenId",
          "type": "uint256"
        }
      ],
      "name": "BatchMetadataUpdate",
      "type": "event"
    },
    {
      "anonymous": false,
      "inputs": [
        {
          "indexed": true,
          "internalType": "uint256",
          "name": "tokenId",
          "type": "uint256"
        },
        {
          "indexed": true,
          "internalType": "address",
          "name": "student",
          "type": "address"
        },
        {
          "indexed": false,
          "internalType": "string",
          "name": "name",
          "type": "string"
        },
        {
          "indexed": false,
          "internalType": "string",
          "name": "institute",
          "type": "string"
        },
        {
          "indexed": false,
          "internalType": "uint256",
          "name": "issueDate",
          "type": "uint256"
        },
        {
          "indexed": false,
          "internalType": "string",
          "name": "certificateType",
          "type": "string"
        }
      ],
      "name": "CertificateIssued",
      "type": "event"
    },
    {
      "anonymous": false,
      "inputs": [
        {
          "indexed": true,
          "internalType": "uint256",
          "name": "requestId",
          "type": "uint256"
        },
        {
          "indexed": true,
          "internalType": "address",
          "name": "student",
          "type": "address"
        },
        {
          "indexed": true,
          "internalType": "address",
          "name": "institute",
          "type": "address"
        }
      ],
      "name": "CertificateRequestApproved",
      "type": "event"
    },
    {
      "anonymous": false,
      "inputs": [
        {
          "indexed": true,
          "internalType": "address",
          "name": "student",
          "type": "address"
        },
        {
          "indexed": true,
          "internalType": "address",
          "name": "institute",
          "type": "address"
        },
        {
          "indexed": false,
          "internalType": "string",
          "name": "name",
          "type": "string"
        },
        {
          "indexed": false,
          "internalType": "string",
          "name": "message",
          "type": "string"
        }
      ],
      "name": "CertificateRequested",
      "type": "event"
    },
    {
      "anonymous": false,
      "inputs": [
        {
          "indexed": false,
          "internalType": "uint256",
          "name": "_tokenId",
          "type": "uint256"
        }
      ],
      "name": "MetadataUpdate",
      "type": "event"
    },
    {
      "anonymous": false,
      "inputs": [
        {
          "indexed": true,
          "internalType": "address",
          "name": "previousOwner",
          "type": "address"
        },
        {
          "indexed": true,
          "internalType": "address",
          "name": "newOwner",
          "type": "address"
        }
      ],
      "name": "OwnershipTransferred",
      "type": "event"
    },
    {
      "anonymous": false,
      "inputs": [
        {
          "indexed": true,
          "internalType": "address",
          "name": "from",
          "type": "address"
        },
        {
          "indexed": true,
          "internalType": "address",
          "name": "to",
          "type": "address"
        },
        {
          "indexed": true,
          "internalType": "uint256",
          "name": "tokenId",
          "type": "uint256"
        }
      ],
      "name": "Transfer",
      "type": "event"
    },
    {
      "inputs": [
        {
          "internalType": "address",
          "name": "to",
          "type": "address"
        },
        {
          "internalType": "uint256",
          "name": "tokenId",
          "type": "uint256"
        }
      ],
      "name": "approve",
      "outputs": [],
      "stateMutability": "nonpayable",
      "type": "function"
    },
    {
      "inputs": [
        {
          "internalType": "uint256",
          "name": "requestId",
          "type": "uint256"
        },
        {
          "internalType": "string",
          "name": "certificateType",
          "type": "string"
        },
        {
          "internalType": "string",
          "name": "tokenURI",
          "type": "string"
        },
        {
          "internalType": "string",
          "name": "institute",
          "type": "string"
        }
      ],
      "name": "approveCertificateRequest",
      "outputs": [],
      "stateMutability": "nonpayable",
      "type": "function"
    },
    {
      "inputs": [
        {
          "internalType": "address",
          "name": "institute",
          "type": "address"
        }
      ],
      "name": "authorizeInstitute",
      "outputs": [],
      "stateMutability": "nonpayable",
      "type": "function"
    },
    {
      "inputs": [
        {
          "internalType": "address",
          "name": "",
          "type": "address"
        }
      ],
      "name": "authorizedInstitutes",
      "outputs": [
        {
          "internalType": "bool",
          "name": "",
          "type": "bool"
        }
      ],
      "stateMutability": "view",
      "type": "function"
    },
    {
      "inputs": [
        {
          "internalType": "address",
          "name": "owner",
          "type": "address"
        }
      ],
      "name": "balanceOf",
      "outputs": [
        {
          "internalType": "uint256",
          "name": "",
          "type": "uint256"
        }
      ],
      "stateMutability": "view",
      "type": "function"
    },
    {
      "inputs": [
        {
          "internalType": "uint256",
          "name": "",
          "type": "uint256"
        }
      ],
      "name": "certificateRequests",
      "outputs": [
        {
          "internalType": "address",
          "name": "student",
          "type": "address"
        },
        {
          "internalType": "string",
          "name": "name",
          "type": "string"
        },
        {
          "internalType": "string",
          "name": "message",
          "type": "string"
        },
        {
          "internalType": "bool",
          "name": "approved",
          "type": "bool"
        }
      ],
      "stateMutability": "view",
      "type": "function"
    },
    {
      "inputs": [
        {
          "internalType": "uint256",
          "name": "",
          "type": "uint256"
        }
      ],
      "name": "certificates",
      "outputs": [
        {
          "internalType": "string",
          "name": "name",
          "type": "string"
        },
        {
          "internalType": "string",
          "name": "institute",
          "type": "string"
        },
        {
          "internalType": "uint256",
          "name": "issueDate",
          "type": "uint256"
        },
        {
          "internalType": "string",
          "name": "certificateType",
          "type": "string"
        },
        {
          "internalType": "address",
          "name": "student",
          "type": "address"
        }
      ],
      "stateMutability": "view",
      "type": "function"
    },
    {
      "inputs": [
        {
          "internalType": "uint256",
          "name": "tokenId",
          "type": "uint256"
        }
      ],
      "name": "getApproved",
      "outputs": [
        {
          "internalType": "address",
          "name": "",
          "type": "address"
        }
      ],
      "stateMutability": "view",
      "type": "function"
    },
    {
      "inputs": [
        {
          "internalType": "uint256",
          "name": "tokenId",
          "type": "uint256"
        }
      ],
      "name": "getCertificateDetails",
      "outputs": [
        {
          "internalType": "string",
          "name": "name",
          "type": "string"
        },
        {
          "internalType": "string",
          "name": "institute",
          "type": "string"
        },
        {
          "internalType": "uint256",
          "name": "issueDate",
          "type": "uint256"
        },
        {
          "internalType": "string",
          "name": "certificateType",
          "type": "string"
        },
        {
          "internalType": "address",
          "name": "student",
          "type": "address"
        }
      ],
      "stateMutability": "view",
      "type": "function"
    },
    {
      "inputs": [
        {
          "internalType": "address",
          "name": "student",
          "type": "address"
        }
      ],
      "name": "getStudentCertificates",
      "outputs": [
        {
          "internalType": "uint256[]",
          "name": "",
          "type": "uint256[]"
        }
      ],
      "stateMutability": "view",
      "type": "function"
    },
    {
      "inputs": [
        {
          "internalType": "address",
          "name": "owner",
          "type": "address"
        },
        {
          "internalType": "address",
          "name": "operator",
          "type": "address"
        }
      ],
      "name": "isApprovedForAll",
      "outputs": [
        {
          "internalType": "bool",
          "name": "",
          "type": "bool"
        }
      ],
      "stateMutability": "view",
      "type": "function"
    },
    {
      "inputs": [
        {
          "internalType": "address",
          "name": "student",
          "type": "address"
        },
        {
          "internalType": "string",
          "name": "name",
          "type": "string"
        },
        {
          "internalType": "string",
          "name": "institute",
          "type": "string"
        },
        {
          "internalType": "string",
          "name": "certificateType",
          "type": "string"
        },
        {
          "internalType": "string",
          "name": "tokenURI",
          "type": "string"
        }
      ],
      "name": "issueCertificate",
      "outputs": [
        {
          "internalType": "uint256",
          "name": "",
          "type": "uint256"
        }
      ],
      "stateMutability": "nonpayable",
      "type": "function"
    },
    {
      "inputs": [],
      "name": "name",
      "outputs": [
        {
          "internalType": "string",
          "name": "",
          "type": "string"
        }
      ],
      "stateMutability": "view",
      "type": "function"
    },
    {
      "inputs": [],
      "name": "owner",
      "outputs": [
        {
          "internalType": "address",
          "name": "",
          "type": "address"
        }
      ],
      "stateMutability": "view",
      "type": "function"
    },
    {
      "inputs": [
        {
          "internalType": "uint256",
          "name": "tokenId",
          "type": "uint256"
        }
      ],
      "name": "ownerOf",
      "outputs": [
        {
          "internalType": "address",
          "name": "",
          "type": "address"
        }
      ],
      "stateMutability": "view",
      "type": "function"
    },
    {
      "inputs": [],
      "name": "renounceOwnership",
      "outputs": [],
      "stateMutability": "nonpayable",
      "type": "function"
    },
    {
      "inputs": [
        {
          "internalType": "address",
          "name": "institute",
          "type": "address"
        },
        {
          "internalType": "string",
          "name": "name",
          "type": "string"
        },
        {
          "internalType": "string",
          "name": "message",
          "type": "string"
        }
      ],
      "name": "requestCertificate",
      "outputs": [],
      "stateMutability": "nonpayable",
      "type": "function"
    },
    {
      "inputs": [],
      "name": "requestCounter",
      "outputs": [
        {
          "internalType": "uint256",
          "name": "",
          "type": "uint256"
        }
      ],
      "stateMutability": "view",
      "type": "function"
    },
    {
      "inputs": [
        {
          "internalType": "address",
          "name": "institute",
          "type": "address"
        }
      ],
      "name": "revokeInstitute",
      "outputs": [],
      "stateMutability": "nonpayable",
      "type": "function"
    },
    {
      "inputs": [
        {
          "internalType": "address",
          "name": "from",
          "type": "address"
        },
        {
          "internalType": "address",
          "name": "to",
          "type": "address"
        },
        {
          "internalType": "uint256",
          "name": "tokenId",
          "type": "uint256"
        }
      ],
      "name": "safeTransferFrom",
      "outputs": [],
      "stateMutability": "nonpayable",
      "type": "function"
    },
    {
      "inputs": [
        {
          "internalType": "address",
          "name": "from",
          "type": "address"
        },
        {
          "internalType": "address",
          "name": "to",
          "type": "address"
        },
        {
          "internalType": "uint256",
          "name": "tokenId",
          "type": "uint256"
        },
        {
          "internalType": "bytes",
          "name": "data",
          "type": "bytes"
        }
      ],
      "name": "safeTransferFrom",
      "outputs": [],
      "stateMutability": "nonpayable",
      "type": "function"
    },
    {
      "inputs": [
        {
          "internalType": "address",
          "name": "operator",
          "type": "address"
        },
        {
          "internalType": "bool",
          "name": "approved",
          "type": "bool"
        }
      ],
      "name": "setApprovalForAll",
      "outputs": [],
      "stateMutability": "nonpayable",
      "type": "function"
    },
    {
      "inputs": [
        {
          "internalType": "address",
          "name": "",
          "type": "address"
        },
        {
          "internalType": "uint256",
          "name": "",
          "type": "uint256"
        }
      ],
      "name": "studentCertificates",
      "outputs": [
        {
          "internalType": "uint256",
          "name": "",
          "type": "uint256"
        }
      ],
      "stateMutability": "view",
      "type": "function"
    },
    {
      "inputs": [
        {
          "internalType": "bytes4",
          "name": "interfaceId",
          "type": "bytes4"
        }
      ],
      "name": "supportsInterface",
      "outputs": [
        {
          "internalType": "bool",
          "name": "",
          "type": "bool"
        }
      ],
      "stateMutability": "view",
      "type": "function"
    },
    {
      "inputs": [],
      "name": "symbol",
      "outputs": [
        {
          "internalType": "string",
          "name": "",
          "type": "string"
        }
      ],
      "stateMutability": "view",
      "type": "function"
    },
    {
      "inputs": [
        {
          "internalType": "uint256",
          "name": "tokenId",
          "type": "uint256"
        }
      ],
      "name": "tokenURI",
      "outputs": [
        {
          "internalType": "string",
          "name": "",
          "type": "string"
        }
      ],
      "stateMutability": "view",
      "type": "function"
    },
    {
      "inputs": [
        {
          "internalType": "address",
          "name": "from",
          "type": "address"
        },
        {
          "internalType": "address",
          "name": "to",
          "type": "address"
        },
        {
          "internalType": "uint256",
          "name": "tokenId",
          "type": "uint256"
        }
      ],
      "name": "transferFrom",
      "outputs": [],
      "stateMutability": "nonpayable",
      "type": "function"
    },
    {
      "inputs": [
        {
          "internalType": "address",
          "name": "newOwner",
          "type": "address"
        }
      ],
      "name": "transferOwnership",
      "outputs": [],
      "stateMutability": "nonpayable",
      "type": "function"
    }
  ],
  "bytecode": "0x608060405234801561001057600080fd5b506040518060400160405280601481526020017f41636164656d69632043657274696669636174650000000000000000000000008152506040518060400160405280600481526020016310d1549560e21b81525081600090816100739190610193565b5060016100808282610193565b50505061009961009461009e60201b60201c565b6100a2565b610251565b3390565b600780546001600160a01b038381166001600160a01b0319831681179093556040519116919082907f8be0079c531659141344cd1fd0a4f28419497f9722a3daafe3b4186f6b6457e090600090a35050565b634e487b7160e01b600052604160045260246000fd5b600181811c9082168061011e57607f821691505b60208210810361013e57634e487b7160e01b600052602260045260246000fd5b50919050565b601f82111561018e57806000526020600020601f840160051c8101602085101561016b5750805b601f840160051c820191505b8181101561018b5760008155600101610177565b50505b505050565b81516001600160401b038111156101ac576101ac6100f4565b6101c0816101ba845461010a565b84610144565b6020601f8211600181146101f457600083156101dc5750848201515b600019600385901b1c1916600184901b17845561018b565b600084815260208120601f198516915b828110156102245787850151825560209485019460019092019101610204565b50848210156102425786840151600019600387901b60f8161c191681555b50505050600190811b01905550565b612746806102606000396000f3fe608060405234801561001057600080fd5b50600436106101c45760003560e01c80637aa7155b116100f9578063b88d4fde11610097578063e985e9c511610071578063e985e9c5146103df578063e9dd92ee1461041b578063ebc63bc01461042e578063f2fde38b1461044e57600080fd5b8063b88d4fde146103a6578063c3934f0e146103b9578063c87b56dd146103cc57600080fd5b8063973a814e116100d3578063973a814e14610364578063a22cb4651461036d578063a901fe5e14610380578063aba16e371461039357600080fd5b80637aa7155b146103385780638da5cb5b1461034b57806395d89b411461035c57600080fd5b80635244f9e1116101665780636352211e116101405780636352211e146102d8578063663b3e22146102eb57806370a082311461030f578063715018a61461033057600080fd5b80635244f9e11461027f57806362594b24146102a25780636332a4ea146102b557600080fd5b8063095ea7b3116101a2578063095ea7b31461023157806323b872dd1461024657806331dc38ac1461025957806342842e0e1461026c57600080fd5b806301ffc9a7146101c957806306fdde03146101f1578063081812fc14610206575b600080fd5b6101dc6101d7366004611e35565b610461565b60405190151581526020015b60405180910390f35b6101f961048c565b6040516101e89190611ea2565b610219610214366004611eb5565b61051e565b6040516001600160a01b0390911681526020016101e8565b61024461023f366004611eea565b610545565b005b610244610254366004611f14565b61065f565b610244610267366004611fff565b610690565b61024461027a366004611f14565b610884565b6101dc61028d36600461209a565b600b6020526000908152604090205460ff1681565b6102446102b036600461209a565b61089f565b6102c86102c3366004611eb5565b6108cb565b6040516101e894939291906120b5565b6102196102e6366004611eb5565b610a11565b6102fe6102f9366004611eb5565b610a71565b6040516101e89594939291906120ff565b61032261031d36600461209a565b610c40565b6040519081526020016101e8565b610244610cc6565b61024461034636600461209a565b610cda565b6007546001600160a01b0316610219565b6101f9610d03565b610322600d5481565b61024461037b366004612159565b610d12565b6102fe61038e366004611eb5565b610d21565b6102446103a1366004612195565b610f46565b6102446103b436600461220c565b611039565b6103226103c7366004611eea565b611071565b6101f96103da366004611eb5565b6110a2565b6101dc6103ed36600461227b565b6001600160a01b03918216600090815260056020908152604080832093909416825291909152205460ff1690565b6103226104293660046122ae565b6111b2565b61044161043c36600461209a565b611361565b6040516101e8919061237b565b61024461045c36600461209a565b6113cd565b60006001600160e01b03198216632483248360e11b1480610486575061048682611446565b92915050565b60606000805461049b906123be565b80601f01602080910402602001604051908101604052809291908181526020018280546104c7906123be565b80156105145780601f106104e957610100808354040283529160200191610514565b820191906000526020600020905b8154815290600101906020018083116104f757829003601f168201915b5050505050905090565b600061052982611496565b506000908152600460205260409020546001600160a01b031690565b600061055082610a11565b9050806001600160a01b0316836001600160a01b0316036105c25760405162461bcd60e51b815260206004820152602160248201527f4552433732313a20617070726f76616c20746f2063757272656e74206f776e656044820152603960f91b60648201526084015b60405180910390fd5b336001600160a01b03821614806105de57506105de81336103ed565b6106505760405162461bcd60e51b815260206004820152603d60248201527f4552433732313a20617070726f76652063616c6c6572206973206e6f7420746f60448201527f6b656e206f776e6572206f7220617070726f76656420666f7220616c6c00000060648201526084016105b9565b61065a83836114f5565b505050565b6106693382611563565b6106855760405162461bcd60e51b81526004016105b9906123f8565b61065a8383836115e1565b6000848152600c6020526040902080546001600160a01b03166106e75760405162461bcd60e51b815260206004820152600f60248201526e125b9d985b1a59081c995c5d595cdd608a1b60448201526064016105b9565b336000908152600b602052604090205460ff166107465760405162461bcd60e51b815260206004820152601960248201527f4e6f7420617574686f72697a656420746f20617070726f76650000000000000060448201526064016105b9565b600381015460ff161561078e5760405162461bcd60e51b815260206004820152601060248201526f105b1c9958591e48185c1c1c9bdd995960821b60448201526064016105b9565b8054600182018054610834926001600160a01b031691906107ae906123be565b80601f01602080910402602001604051908101604052809291908181526020018280546107da906123be565b80156108275780601f106107fc57610100808354040283529160200191610827565b820191906000526020600020905b81548152906001019060200180831161080a57829003601f168201915b50505050508487876111b2565b5060038101805460ff19166001179055805460405133916001600160a01b03169087907ff1ee664cbcdee0c3ae1e95435c6ebcd4f2b82cdc8151eb101a0c1faa00e7bf7290600090a45050505050565b61065a83838360405180602001604052806000815250611039565b6108a7611745565b6001600160a01b03166000908152600b60205260409020805460ff19166001179055565b600c60205260009081526040902080546001820180546001600160a01b0390921692916108f7906123be565b80601f0160208091040260200160405190810160405280929190818152602001828054610923906123be565b80156109705780601f1061094557610100808354040283529160200191610970565b820191906000526020600020905b81548152906001019060200180831161095357829003601f168201915b505050505090806002018054610985906123be565b80601f01602080910402602001604051908101604052809291908181526020018280546109b1906123be565b80156109fe5780601f106109d3576101008083540402835291602001916109fe565b820191906000526020600020905b8154815290600101906020018083116109e157829003601f168201915b5050506003909301549192505060ff1684565b6000818152600260205260408120546001600160a01b0316806104865760405162461bcd60e51b8152602060048201526018602482015277115490cdcc8c4e881a5b9d985b1a59081d1bdad95b88125160421b60448201526064016105b9565b600960205260009081526040902080548190610a8c906123be565b80601f0160208091040260200160405190810160405280929190818152602001828054610ab8906123be565b8015610b055780601f10610ada57610100808354040283529160200191610b05565b820191906000526020600020905b815481529060010190602001808311610ae857829003601f168201915b505050505090806001018054610b1a906123be565b80601f0160208091040260200160405190810160405280929190818152602001828054610b46906123be565b8015610b935780601f10610b6857610100808354040283529160200191610b93565b820191906000526020600020905b815481529060010190602001808311610b7657829003601f168201915b505050505090806002015490806003018054610bae906123be565b80601f0160208091040260200160405190810160405280929190818152602001828054610bda906123be565b8015610c275780601f10610bfc57610100808354040283529160200191610c27565b820191906000526020600020905b815481529060010190602001808311610c0a57829003601f168201915b505050600490930154919250506001600160a01b031685565b60006001600160a01b038216610caa5760405162461bcd60e51b815260206004820152602960248201527f4552433732313a2061646472657373207a65726f206973206e6f7420612076616044820152683634b21037bbb732b960b91b60648201526084016105b9565b506001600160a01b031660009081526003602052604090205490565b610cce611745565b610cd8600061179f565b565b610ce2611745565b6001600160a01b03166000908152600b60205260409020805460ff19169055565b60606001805461049b906123be565b610d1d3383836117f1565b5050565b60608060006060600080600960008881526020019081526020016000206040518060a0016040529081600082018054610d59906123be565b80601f0160208091040260200160405190810160405280929190818152602001828054610d85906123be565b8015610dd25780601f10610da757610100808354040283529160200191610dd2565b820191906000526020600020905b815481529060010190602001808311610db557829003601f168201915b50505050508152602001600182018054610deb906123be565b80601f0160208091040260200160405190810160405280929190818152602001828054610e17906123be565b8015610e645780601f10610e3957610100808354040283529160200191610e64565b820191906000526020600020905b815481529060010190602001808311610e4757829003601f168201915b5050505050815260200160028201548152602001600382018054610e87906123be565b80601f0160208091040260200160405190810160405280929190818152602001828054610eb3906123be565b8015610f005780601f10610ed557610100808354040283529160200191610f00565b820191906000526020600020905b815481529060010190602001808311610ee357829003601f168201915b5050509183525050600491909101546001600160a01b031660209182015281519082015160408301516060840151608090940151929b919a509850919650945092505050565b600d8054906000610f5683612445565b9091555050604080516080810182523381526020808201858152828401859052600060608401819052600d548152600c909252929020815181546001600160a01b0319166001600160a01b0390911617815591519091906001820190610fbc90826124ba565b5060408201516002820190610fd190826124ba565b50606091909101516003909101805460ff19169115159190911790556040516001600160a01b0384169033907f83df18e098d358ae0f6b6f7da909199d688fafbb1de641ba484fd6f3e1aae7a99061102c9086908690612578565b60405180910390a3505050565b6110433383611563565b61105f5760405162461bcd60e51b81526004016105b9906123f8565b61106b848484846118b7565b50505050565b600a602052816000526040600020818154811061108d57600080fd5b90600052602060002001600091509150505481565b60606110ad82611496565b600082815260066020526040812080546110c6906123be565b80601f01602080910402602001604051908101604052809291908181526020018280546110f2906123be565b801561113f5780601f106111145761010080835404028352916020019161113f565b820191906000526020600020905b81548152906001019060200180831161112257829003601f168201915b50505050509050600061115d60408051602081019091526000815290565b9050805160000361116f575092915050565b8151156111a15780826040516020016111899291906125a6565b60405160208183030381529060405292505050919050565b6111aa846118ea565b949350505050565b336000908152600b602052604081205460ff1661121d5760405162461bcd60e51b8152602060048201526024808201527f4e6f7420617574686f72697a656420746f2069737375652063657274696669636044820152636174657360e01b60648201526084016105b9565b61122b600880546001019055565b600061123660085490565b9050611242878261195e565b61124c8184611ae9565b6040805160a08101825287815260208082018890524282840152606082018790526001600160a01b038a16608083015260008481526009909152919091208151819061129890826124ba565b50602082015160018201906112ad90826124ba565b5060408201516002820155606082015160038201906112cc90826124ba565b5060809190910151600490910180546001600160a01b0319166001600160a01b0392831617905587166000818152600a60209081526040808320805460018101825590845291909220018390555182907f55771991ffa371c9dd2db01cda7cd1f387b5c4799385b30ac842da0ba78245189061134f908a908a9042908b906125d5565b60405180910390a39695505050505050565b6001600160a01b0381166000908152600a60209081526040918290208054835181840281018401909452808452606093928301828280156113c157602002820191906000526020600020905b8154815260200190600101908083116113ad575b50505050509050919050565b6113d5611745565b6001600160a01b03811661143a5760405162461bcd60e51b815260206004820152602660248201527f4f776e61626c653a206e6577206f776e657220697320746865207a65726f206160448201526564647265737360d01b60648201526084016105b9565b6114438161179f565b50565b60006001600160e01b031982166380ac58cd60e01b148061147757506001600160e01b03198216635b5e139f60e01b145b8061048657506301ffc9a760e01b6001600160e01b0319831614610486565b6000818152600260205260409020546001600160a01b03166114435760405162461bcd60e51b8152602060048201526018602482015277115490cdcc8c4e881a5b9d985b1a59081d1bdad95b88125160421b60448201526064016105b9565b600081815260046020526040902080546001600160a01b0319166001600160a01b038416908117909155819061152a82610a11565b6001600160a01b03167f8c5be1e5ebec7d5bd14f71427d1e84f3dd0314c0f7b2291e5b200ac8c7c3b92560405160405180910390a45050565b60008061156f83610a11565b9050806001600160a01b0316846001600160a01b031614806115b657506001600160a01b0380821660009081526005602090815260408083209388168352929052205460ff165b806111aa5750836001600160a01b03166115cf8461051e565b6001600160a01b031614949350505050565b826001600160a01b03166115f482610a11565b6001600160a01b03161461161a5760405162461bcd60e51b81526004016105b99061261f565b6001600160a01b03821661167c5760405162461bcd60e51b8152602060048201526024808201527f4552433732313a207472616e7366657220746f20746865207a65726f206164646044820152637265737360e01b60648201526084016105b9565b826001600160a01b031661168f82610a11565b6001600160a01b0316146116b55760405162461bcd60e51b81526004016105b99061261f565b600081815260046020908152604080832080546001600160a01b03199081169091556001600160a01b0387811680865260038552838620805460001901905590871680865283862080546001019055868652600290945282852080549092168417909155905184937fddf252ad1be2c89b69c2b068fc378daa952ba7f163c4a11628f55a4df523b3ef91a4505050565b6007546001600160a01b03163314610cd85760405162461bcd60e51b815260206004820181905260248201527f4f776e61626c653a2063616c6c6572206973206e6f7420746865206f776e657260448201526064016105b9565b600780546001600160a01b038381166001600160a01b0319831681179093556040519116919082907f8be0079c531659141344cd1fd0a4f28419497f9722a3daafe3b4186f6b6457e090600090a35050565b816001600160a01b0316836001600160a01b0316036118525760405162461bcd60e51b815260206004820152601960248201527f4552433732313a20617070726f766520746f2063616c6c65720000000000000060448201526064016105b9565b6001600160a01b03838116600081815260056020908152604080832094871680845294825291829020805460ff191686151590811790915591519182527f17307eab39ab6107e8899845ad3d59bd9653f200f220920489ca2b5937696c31910161102c565b6118c28484846115e1565b6118ce84848484611bb4565b61106b5760405162461bcd60e51b81526004016105b990612664565b60606118f582611496565b600061190c60408051602081019091526000815290565b9050600081511161192c5760405180602001604052806000815250611957565b8061193684611cb5565b6040516020016119479291906125a6565b6040516020818303038152906040525b9392505050565b6001600160a01b0382166119b45760405162461bcd60e51b815260206004820181905260248201527f4552433732313a206d696e7420746f20746865207a65726f206164647265737360448201526064016105b9565b6000818152600260205260409020546001600160a01b031615611a195760405162461bcd60e51b815260206004820152601c60248201527f4552433732313a20746f6b656e20616c7265616479206d696e7465640000000060448201526064016105b9565b6000818152600260205260409020546001600160a01b031615611a7e5760405162461bcd60e51b815260206004820152601c60248201527f4552433732313a20746f6b656e20616c7265616479206d696e7465640000000060448201526064016105b9565b6001600160a01b038216600081815260036020908152604080832080546001019055848352600290915280822080546001600160a01b0319168417905551839291907fddf252ad1be2c89b69c2b068fc378daa952ba7f163c4a11628f55a4df523b3ef908290a45050565b6000828152600260205260409020546001600160a01b0316611b645760405162461bcd60e51b815260206004820152602e60248201527f45524337323155524953746f726167653a2055524920736574206f66206e6f6e60448201526d32bc34b9ba32b73a103a37b5b2b760911b60648201526084016105b9565b6000828152600660205260409020611b7c82826124ba565b506040518281527ff8e1a15aba9398e019f0b49df1a4fde98ee17ae345cb5f6b5e2c27f5033e8ce79060200160405180910390a15050565b60006001600160a01b0384163b15611caa57604051630a85bd0160e11b81526001600160a01b0385169063150b7a0290611bf89033908990889088906004016126b6565b6020604051808303816000875af1925050508015611c33575060408051601f3d908101601f19168201909252611c30918101906126f3565b60015b611c90573d808015611c61576040519150601f19603f3d011682016040523d82523d6000602084013e611c66565b606091505b508051600003611c885760405162461bcd60e51b81526004016105b990612664565b805181602001fd5b6001600160e01b031916630a85bd0160e11b1490506111aa565b506001949350505050565b60606000611cc283611d47565b60010190506000816001600160401b03811115611ce157611ce1611f51565b6040519080825280601f01601f191660200182016040528015611d0b576020820181803683370190505b5090508181016020015b600019016f181899199a1a9b1b9c1cb0b131b232b360811b600a86061a8153600a8504945084611d1557509392505050565b60008072184f03e93ff9f4daa797ed6e38ed64bf6a1f0160401b8310611d865772184f03e93ff9f4daa797ed6e38ed64bf6a1f0160401b830492506040015b6d04ee2d6d415b85acef81000000008310611db2576d04ee2d6d415b85acef8100000000830492506020015b662386f26fc100008310611dd057662386f26fc10000830492506010015b6305f5e1008310611de8576305f5e100830492506008015b6127108310611dfc57612710830492506004015b60648310611e0e576064830492506002015b600a83106104865760010192915050565b6001600160e01b03198116811461144357600080fd5b600060208284031215611e4757600080fd5b813561195781611e1f565b60005b83811015611e6d578181015183820152602001611e55565b50506000910152565b60008151808452611e8e816020860160208601611e52565b601f01601f19169290920160200192915050565b6020815260006119576020830184611e76565b600060208284031215611ec757600080fd5b5035919050565b80356001600160a01b0381168114611ee557600080fd5b919050565b60008060408385031215611efd57600080fd5b611f0683611ece565b946020939093013593505050565b600080600060608486031215611f2957600080fd5b611f3284611ece565b9250611f4060208501611ece565b929592945050506040919091013590565b634e487b7160e01b600052604160045260246000fd5b6000806001600160401b03841115611f8157611f81611f51565b50604051601f19601f85018116603f011681018181106001600160401b0382111715611faf57611faf611f51565b604052838152905080828401851015611fc757600080fd5b83836020830137600060208583010152509392505050565b600082601f830112611ff057600080fd5b61195783833560208501611f67565b6000806000806080858703121561201557600080fd5b8435935060208501356001600160401b0381111561203257600080fd5b61203e87828801611fdf565b93505060408501356001600160401b0381111561205a57600080fd5b61206687828801611fdf565b92505060608501356001600160401b0381111561208257600080fd5b61208e87828801611fdf565b91505092959194509250565b6000602082840312156120ac57600080fd5b61195782611ece565b6001600160a01b03851681526080602082018190526000906120d990830186611e76565b82810360408401526120eb8186611e76565b915050821515606083015295945050505050565b60a08152600061211260a0830188611e76565b82810360208401526121248188611e76565b9050856040840152828103606084015261213e8186611e76565b91505060018060a01b03831660808301529695505050505050565b6000806040838503121561216c57600080fd5b61217583611ece565b91506020830135801515811461218a57600080fd5b809150509250929050565b6000806000606084860312156121aa57600080fd5b6121b384611ece565b925060208401356001600160401b038111156121ce57600080fd5b6121da86828701611fdf565b92505060408401356001600160401b038111156121f657600080fd5b61220286828701611fdf565b9150509250925092565b6000806000806080858703121561222257600080fd5b61222b85611ece565b935061223960208601611ece565b92506040850135915060608501356001600160401b0381111561225b57600080fd5b8501601f8101871361226c57600080fd5b61208e87823560208401611f67565b6000806040838503121561228e57600080fd5b61229783611ece565b91506122a560208401611ece565b90509250929050565b600080600080600060a086880312156122c657600080fd5b6122cf86611ece565b945060208601356001600160401b038111156122ea57600080fd5b6122f688828901611fdf565b94505060408601356001600160401b0381111561231257600080fd5b61231e88828901611fdf565b93505060608601356001600160401b0381111561233a57600080fd5b61234688828901611fdf565b92505060808601356001600160401b0381111561236257600080fd5b61236e88828901611fdf565b9150509295509295909350565b602080825282518282018190526000918401906040840190835b818110156123b3578351835260209384019390920191600101612395565b509095945050505050565b600181811c908216806123d257607f821691505b6020821081036123f257634e487b7160e01b600052602260045260246000fd5b50919050565b6020808252602d908201527f4552433732313a2063616c6c6572206973206e6f7420746f6b656e206f776e6560408201526c1c881bdc88185c1c1c9bdd9959609a1b606082015260800190565b60006001820161246557634e487b7160e01b600052601160045260246000fd5b5060010190565b601f82111561065a57806000526020600020601f840160051c810160208510156124935750805b601f840160051c820191505b818110156124b3576000815560010161249f565b5050505050565b81516001600160401b038111156124d3576124d3611f51565b6124e7816124e184546123be565b8461246c565b6020601f82116001811461251b57600083156125035750848201515b600019600385901b1c1916600184901b1784556124b3565b600084815260208120601f198516915b8281101561254b578785015182556020948501946001909201910161252b565b50848210156125695786840151600019600387901b60f8161c191681555b50505050600190811b01905550565b60408152600061258b6040830185611e76565b828103602084015261259d8185611e76565b95945050505050565b600083516125b8818460208801611e52565b8351908301906125cc818360208801611e52565b01949350505050565b6080815260006125e86080830187611e76565b82810360208401526125fa8187611e76565b905084604084015282810360608401526126148185611e76565b979650505050505050565b60208082526025908201527f4552433732313a207472616e736665722066726f6d20696e636f72726563742060408201526437bbb732b960d91b606082015260800190565b60208082526032908201527f4552433732313a207472616e7366657220746f206e6f6e20455243373231526560408201527131b2b4bb32b91034b6b83632b6b2b73a32b960711b606082015260800190565b6001600160a01b03858116825284166020820152604081018390526080606082018190526000906126e990830184611e76565b9695505050505050565b60006020828403121561270557600080fd5b815161195781611e1f56fea2646970667358221220e496b19f9902c55f0b83d6fb0e93058860fe878f4a3fbfb2b04d231d6a36a45b64736f6c634300081c0033",
  "linkReferences": {},
  "deployedLinkReferences": {}
}