{
  "_format": "hh-sol-artifact-1",
  "contractName": "CertificateNFT",
  "sourceName": "contracts/CertificateNFT.sol",
  "abi": [
    {
      "inputs": [],
      "stateMutability": "nonpayable",
      "type": "constructor"
    },
    {
      "anonymous": false,
      "inputs": [
        {
          "indexed": true,
          "internalType": "address",
          "name": "owner",
          "type": "address"
        },
        {
          "indexed": true,
          "internalType": "address",
          "name": "approved",
          "type": "address"
        },
        {
          "indexed": true,
          "internalType": "uint256",
          "name": "tokenId",
          "type": "uint256"
        }
      ],
      "name": "Approval",
      "type": "event"
    },
    {
      "anonymous": false,
      "inputs": [
        {
          "indexed": true,
          "internalType": "address",
          "name": "owner",
          "type": "address"
        },
        {
          "indexed": true,
          "internalType": "address",
          "name": "operator",
          "type": "address"
        },
        {
          "indexed": false,
          "internalType": "bool",
          "name": "approved",
          "type": "bool"
        }
      ],
      "name": "ApprovalForAll",
      "type": "event"
    },
    {
      "anonymous": false,
      "inputs": [
        {
          "indexed": false,
          "internalType": "uint256",
          "name": "_fromTokenId",
          "type": "uint256"
        },
        {
          "indexed": false,
          "internalType": "uint256",
          "name": "_toTokenId",
          "type": "uint256"
        }
      ],
      "name": "BatchMetadataUpdate",
      "type": "event"
    },
    {
      "anonymous": false,
      "inputs": [
        {
          "indexed": true,
          "internalType": "uint256",
          "name": "tokenId",
          "type": "uint256"
        },
        {
          "indexed": true,
          "internalType": "address",
          "name": "student",
          "type": "address"
        },
        {
          "indexed": false,
          "internalType": "string",
          "name": "name",
          "type": "string"
        },
        {
          "indexed": false,
          "internalType": "string",
          "name": "institute",
          "type": "string"
        },
        {
          "indexed": false,
          "internalType": "uint256",
          "name": "issueDate",
          "type": "uint256"
        },
        {
          "indexed": false,
          "internalType": "string",
          "name": "certificateType",
          "type": "string"
        }
      ],
      "name": "CertificateIssued",
      "type": "event"
    },
    {
      "anonymous": false,
      "inputs": [
        {
          "indexed": true,
          "internalType": "uint256",
          "name": "requestId",
          "type": "uint256"
        },
        {
          "indexed": true,
          "internalType": "address",
          "name": "student",
          "type": "address"
        },
        {
          "indexed": true,
          "internalType": "address",
          "name": "institute",
          "type": "address"
        }
      ],
      "name": "CertificateRequestApproved",
      "type": "event"
    },
    {
      "anonymous": false,
      "inputs": [
        {
          "indexed": true,
          "internalType": "address",
          "name": "student",
          "type": "address"
        },
        {
          "indexed": true,
          "internalType": "address",
          "name": "institute",
          "type": "address"
        },
        {
          "indexed": false,
          "internalType": "string",
          "name": "name",
          "type": "string"
        },
        {
          "indexed": false,
          "internalType": "string",
          "name": "message",
          "type": "string"
        }
      ],
      "name": "CertificateRequested",
      "type": "event"
    },
    {
      "anonymous": false,
      "inputs": [
        {
          "indexed": false,
          "internalType": "uint256",
          "name": "_tokenId",
          "type": "uint256"
        }
      ],
      "name": "MetadataUpdate",
      "type": "event"
    },
    {
      "anonymous": false,
      "inputs": [
        {
          "indexed": true,
          "internalType": "address",
          "name": "previousOwner",
          "type": "address"
        },
        {
          "indexed": true,
          "internalType": "address",
          "name": "newOwner",
          "type": "address"
        }
      ],
      "name": "OwnershipTransferred",
      "type": "event"
    },
    {
      "anonymous": false,
      "inputs": [
        {
          "indexed": true,
          "internalType": "address",
          "name": "from",
          "type": "address"
        },
        {
          "indexed": true,
          "internalType": "address",
          "name": "to",
          "type": "address"
        },
        {
          "indexed": true,
          "internalType": "uint256",
          "name": "tokenId",
          "type": "uint256"
        }
      ],
      "name": "Transfer",
      "type": "event"
    },
    {
      "inputs": [
        {
          "internalType": "address",
          "name": "to",
          "type": "address"
        },
        {
          "internalType": "uint256",
          "name": "tokenId",
          "type": "uint256"
        }
      ],
      "name": "approve",
      "outputs": [],
      "stateMutability": "nonpayable",
      "type": "function"
    },
    {
      "inputs": [
        {
          "internalType": "uint256",
          "name": "requestId",
          "type": "uint256"
        },
        {
          "internalType": "string",
          "name": "certificateType",
          "type": "string"
        },
        {
          "internalType": "string",
          "name": "tokenURI",
          "type": "string"
        }
      ],
      "name": "approveCertificateRequest",
      "outputs": [],
      "stateMutability": "nonpayable",
      "type": "function"
    },
    {
      "inputs": [
        {
          "internalType": "address",
          "name": "institute",
          "type": "address"
        }
      ],
      "name": "authorizeInstitute",
      "outputs": [],
      "stateMutability": "nonpayable",
      "type": "function"
    },
    {
      "inputs": [
        {
          "internalType": "address",
          "name": "",
          "type": "address"
        }
      ],
      "name": "authorizedInstitutes",
      "outputs": [
        {
          "internalType": "bool",
          "name": "",
          "type": "bool"
        }
      ],
      "stateMutability": "view",
      "type": "function"
    },
    {
      "inputs": [
        {
          "internalType": "address",
          "name": "owner",
          "type": "address"
        }
      ],
      "name": "balanceOf",
      "outputs": [
        {
          "internalType": "uint256",
          "name": "",
          "type": "uint256"
        }
      ],
      "stateMutability": "view",
      "type": "function"
    },
    {
      "inputs": [
        {
          "internalType": "uint256",
          "name": "",
          "type": "uint256"
        }
      ],
      "name": "certificateRequests",
      "outputs": [
        {
          "internalType": "address",
          "name": "student",
          "type": "address"
        },
        {
          "internalType": "string",
          "name": "name",
          "type": "string"
        },
        {
          "internalType": "string",
          "name": "message",
          "type": "string"
        },
        {
          "internalType": "bool",
          "name": "approved",
          "type": "bool"
        }
      ],
      "stateMutability": "view",
      "type": "function"
    },
    {
      "inputs": [
        {
          "internalType": "uint256",
          "name": "",
          "type": "uint256"
        }
      ],
      "name": "certificates",
      "outputs": [
        {
          "internalType": "string",
          "name": "name",
          "type": "string"
        },
        {
          "internalType": "string",
          "name": "institute",
          "type": "string"
        },
        {
          "internalType": "uint256",
          "name": "issueDate",
          "type": "uint256"
        },
        {
          "internalType": "string",
          "name": "certificateType",
          "type": "string"
        },
        {
          "internalType": "address",
          "name": "student",
          "type": "address"
        }
      ],
      "stateMutability": "view",
      "type": "function"
    },
    {
      "inputs": [
        {
          "internalType": "uint256",
          "name": "tokenId",
          "type": "uint256"
        }
      ],
      "name": "getApproved",
      "outputs": [
        {
          "internalType": "address",
          "name": "",
          "type": "address"
        }
      ],
      "stateMutability": "view",
      "type": "function"
    },
    {
      "inputs": [
        {
          "internalType": "uint256",
          "name": "tokenId",
          "type": "uint256"
        }
      ],
      "name": "getCertificateDetails",
      "outputs": [
        {
          "internalType": "string",
          "name": "name",
          "type": "string"
        },
        {
          "internalType": "string",
          "name": "institute",
          "type": "string"
        },
        {
          "internalType": "uint256",
          "name": "issueDate",
          "type": "uint256"
        },
        {
          "internalType": "string",
          "name": "certificateType",
          "type": "string"
        },
        {
          "internalType": "address",
          "name": "student",
          "type": "address"
        }
      ],
      "stateMutability": "view",
      "type": "function"
    },
    {
      "inputs": [
        {
          "internalType": "address",
          "name": "student",
          "type": "address"
        }
      ],
      "name": "getStudentCertificates",
      "outputs": [
        {
          "internalType": "uint256[]",
          "name": "",
          "type": "uint256[]"
        }
      ],
      "stateMutability": "view",
      "type": "function"
    },
    {
      "inputs": [
        {
          "internalType": "address",
          "name": "owner",
          "type": "address"
        },
        {
          "internalType": "address",
          "name": "operator",
          "type": "address"
        }
      ],
      "name": "isApprovedForAll",
      "outputs": [
        {
          "internalType": "bool",
          "name": "",
          "type": "bool"
        }
      ],
      "stateMutability": "view",
      "type": "function"
    },
    {
      "inputs": [
        {
          "internalType": "address",
          "name": "student",
          "type": "address"
        },
        {
          "internalType": "string",
          "name": "name",
          "type": "string"
        },
        {
          "internalType": "string",
          "name": "institute",
          "type": "string"
        },
        {
          "internalType": "string",
          "name": "certificateType",
          "type": "string"
        },
        {
          "internalType": "string",
          "name": "tokenURI",
          "type": "string"
        }
      ],
      "name": "issueCertificate",
      "outputs": [
        {
          "internalType": "uint256",
          "name": "",
          "type": "uint256"
        }
      ],
      "stateMutability": "nonpayable",
      "type": "function"
    },
    {
      "inputs": [],
      "name": "name",
      "outputs": [
        {
          "internalType": "string",
          "name": "",
          "type": "string"
        }
      ],
      "stateMutability": "view",
      "type": "function"
    },
    {
      "inputs": [],
      "name": "owner",
      "outputs": [
        {
          "internalType": "address",
          "name": "",
          "type": "address"
        }
      ],
      "stateMutability": "view",
      "type": "function"
    },
    {
      "inputs": [
        {
          "internalType": "uint256",
          "name": "tokenId",
          "type": "uint256"
        }
      ],
      "name": "ownerOf",
      "outputs": [
        {
          "internalType": "address",
          "name": "",
          "type": "address"
        }
      ],
      "stateMutability": "view",
      "type": "function"
    },
    {
      "inputs": [],
      "name": "renounceOwnership",
      "outputs": [],
      "stateMutability": "nonpayable",
      "type": "function"
    },
    {
      "inputs": [
        {
          "internalType": "address",
          "name": "institute",
          "type": "address"
        },
        {
          "internalType": "string",
          "name": "name",
          "type": "string"
        },
        {
          "internalType": "string",
          "name": "message",
          "type": "string"
        }
      ],
      "name": "requestCertificate",
      "outputs": [],
      "stateMutability": "nonpayable",
      "type": "function"
    },
    {
      "inputs": [],
      "name": "requestCounter",
      "outputs": [
        {
          "internalType": "uint256",
          "name": "",
          "type": "uint256"
        }
      ],
      "stateMutability": "view",
      "type": "function"
    },
    {
      "inputs": [
        {
          "internalType": "address",
          "name": "institute",
          "type": "address"
        }
      ],
      "name": "revokeInstitute",
      "outputs": [],
      "stateMutability": "nonpayable",
      "type": "function"
    },
    {
      "inputs": [
        {
          "internalType": "address",
          "name": "from",
          "type": "address"
        },
        {
          "internalType": "address",
          "name": "to",
          "type": "address"
        },
        {
          "internalType": "uint256",
          "name": "tokenId",
          "type": "uint256"
        }
      ],
      "name": "safeTransferFrom",
      "outputs": [],
      "stateMutability": "nonpayable",
      "type": "function"
    },
    {
      "inputs": [
        {
          "internalType": "address",
          "name": "from",
          "type": "address"
        },
        {
          "internalType": "address",
          "name": "to",
          "type": "address"
        },
        {
          "internalType": "uint256",
          "name": "tokenId",
          "type": "uint256"
        },
        {
          "internalType": "bytes",
          "name": "data",
          "type": "bytes"
        }
      ],
      "name": "safeTransferFrom",
      "outputs": [],
      "stateMutability": "nonpayable",
      "type": "function"
    },
    {
      "inputs": [
        {
          "internalType": "address",
          "name": "operator",
          "type": "address"
        },
        {
          "internalType": "bool",
          "name": "approved",
          "type": "bool"
        }
      ],
      "name": "setApprovalForAll",
      "outputs": [],
      "stateMutability": "nonpayable",
      "type": "function"
    },
    {
      "inputs": [
        {
          "internalType": "address",
          "name": "",
          "type": "address"
        },
        {
          "internalType": "uint256",
          "name": "",
          "type": "uint256"
        }
      ],
      "name": "studentCertificates",
      "outputs": [
        {
          "internalType": "uint256",
          "name": "",
          "type": "uint256"
        }
      ],
      "stateMutability": "view",
      "type": "function"
    },
    {
      "inputs": [
        {
          "internalType": "bytes4",
          "name": "interfaceId",
          "type": "bytes4"
        }
      ],
      "name": "supportsInterface",
      "outputs": [
        {
          "internalType": "bool",
          "name": "",
          "type": "bool"
        }
      ],
      "stateMutability": "view",
      "type": "function"
    },
    {
      "inputs": [],
      "name": "symbol",
      "outputs": [
        {
          "internalType": "string",
          "name": "",
          "type": "string"
        }
      ],
      "stateMutability": "view",
      "type": "function"
    },
    {
      "inputs": [
        {
          "internalType": "uint256",
          "name": "tokenId",
          "type": "uint256"
        }
      ],
      "name": "tokenURI",
      "outputs": [
        {
          "internalType": "string",
          "name": "",
          "type": "string"
        }
      ],
      "stateMutability": "view",
      "type": "function"
    },
    {
      "inputs": [
        {
          "internalType": "address",
          "name": "from",
          "type": "address"
        },
        {
          "internalType": "address",
          "name": "to",
          "type": "address"
        },
        {
          "internalType": "uint256",
          "name": "tokenId",
          "type": "uint256"
        }
      ],
      "name": "transferFrom",
      "outputs": [],
      "stateMutability": "nonpayable",
      "type": "function"
    },
    {
      "inputs": [
        {
          "internalType": "address",
          "name": "newOwner",
          "type": "address"
        }
      ],
      "name": "transferOwnership",
      "outputs": [],
      "stateMutability": "nonpayable",
      "type": "function"
    }
  ],
  "bytecode": "0x608060405234801561001057600080fd5b506040518060400160405280601481526020017f41636164656d69632043657274696669636174650000000000000000000000008152506040518060400160405280600481526020016310d1549560e21b81525081600090816100739190610193565b5060016100808282610193565b50505061009961009461009e60201b60201c565b6100a2565b610251565b3390565b600780546001600160a01b038381166001600160a01b0319831681179093556040519116919082907f8be0079c531659141344cd1fd0a4f28419497f9722a3daafe3b4186f6b6457e090600090a35050565b634e487b7160e01b600052604160045260246000fd5b600181811c9082168061011e57607f821691505b60208210810361013e57634e487b7160e01b600052602260045260246000fd5b50919050565b601f82111561018e57806000526020600020601f840160051c8101602085101561016b5750805b601f840160051c820191505b8181101561018b5760008155600101610177565b50505b505050565b81516001600160401b038111156101ac576101ac6100f4565b6101c0816101ba845461010a565b84610144565b6020601f8211600181146101f457600083156101dc5750848201515b600019600385901b1c1916600184901b17845561018b565b600084815260208120601f198516915b828110156102245787850151825560209485019460019092019101610204565b50848210156102425786840151600019600387901b60f8161c191681555b50505050600190811b01905550565b61279a806102606000396000f3fe608060405234801561001057600080fd5b50600436106101c45760003560e01c80638da5cb5b116100f9578063c3934f0e11610097578063e985e9c511610071578063e985e9c5146103df578063e9dd92ee1461041b578063ebc63bc01461042e578063f2fde38b1461044e57600080fd5b8063c3934f0e146103a6578063c87b56dd146103b9578063dc659dac146103cc57600080fd5b8063a22cb465116100d3578063a22cb4651461035a578063a901fe5e1461036d578063aba16e3714610380578063b88d4fde1461039357600080fd5b80638da5cb5b1461033857806395d89b4114610349578063973a814e1461035157600080fd5b806362594b2411610166578063663b3e2211610140578063663b3e22146102d857806370a08231146102fc578063715018a61461031d5780637aa7155b1461032557600080fd5b806362594b241461028f5780636332a4ea146102a25780636352211e146102c557600080fd5b8063095ea7b3116101a2578063095ea7b31461023157806323b872dd1461024657806342842e0e146102595780635244f9e11461026c57600080fd5b806301ffc9a7146101c957806306fdde03146101f1578063081812fc14610206575b600080fd5b6101dc6101d7366004611edb565b610461565b60405190151581526020015b60405180910390f35b6101f961048c565b6040516101e89190611f48565b610219610214366004611f5b565b61051e565b6040516001600160a01b0390911681526020016101e8565b61024461023f366004611f90565b610545565b005b610244610254366004611fba565b61065f565b610244610267366004611fba565b610690565b6101dc61027a366004611ff7565b600b6020526000908152604090205460ff1681565b61024461029d366004611ff7565b6106ab565b6102b56102b0366004611f5b565b6106d7565b6040516101e89493929190612012565b6102196102d3366004611f5b565b61081d565b6102eb6102e6366004611f5b565b61087d565b6040516101e895949392919061205c565b61030f61030a366004611ff7565b610a4c565b6040519081526020016101e8565b610244610ad2565b610244610333366004611ff7565b610ae6565b6007546001600160a01b0316610219565b6101f9610b0f565b61030f600d5481565b6102446103683660046120b6565b610b1e565b6102eb61037b366004611f5b565b610b2d565b61024461038e3660046121a2565b610d52565b6102446103a136600461221b565b610e45565b61030f6103b4366004611f90565b610e7d565b6101f96103c7366004611f5b565b610eae565b6102446103da366004612297565b610fbe565b6101dc6103ed3660046122ca565b6001600160a01b03918216600090815260056020908152604080832093909416825291909152205460ff1690565b61030f6104293660046122fd565b611257565b61044161043c366004611ff7565b611406565b6040516101e891906123ce565b61024461045c366004611ff7565b611472565b60006001600160e01b03198216632483248360e11b14806104865750610486826114eb565b92915050565b60606000805461049b90612411565b80601f01602080910402602001604051908101604052809291908181526020018280546104c790612411565b80156105145780601f106104e957610100808354040283529160200191610514565b820191906000526020600020905b8154815290600101906020018083116104f757829003601f168201915b5050505050905090565b60006105298261153b565b506000908152600460205260409020546001600160a01b031690565b60006105508261081d565b9050806001600160a01b0316836001600160a01b0316036105c25760405162461bcd60e51b815260206004820152602160248201527f4552433732313a20617070726f76616c20746f2063757272656e74206f776e656044820152603960f91b60648201526084015b60405180910390fd5b336001600160a01b03821614806105de57506105de81336103ed565b6106505760405162461bcd60e51b815260206004820152603d60248201527f4552433732313a20617070726f76652063616c6c6572206973206e6f7420746f60448201527f6b656e206f776e6572206f7220617070726f76656420666f7220616c6c00000060648201526084016105b9565b61065a838361159a565b505050565b6106693382611608565b6106855760405162461bcd60e51b81526004016105b99061244b565b61065a838383611686565b61065a83838360405180602001604052806000815250610e45565b6106b36117ea565b6001600160a01b03166000908152600b60205260409020805460ff19166001179055565b600c60205260009081526040902080546001820180546001600160a01b03909216929161070390612411565b80601f016020809104026020016040519081016040528092919081815260200182805461072f90612411565b801561077c5780601f106107515761010080835404028352916020019161077c565b820191906000526020600020905b81548152906001019060200180831161075f57829003601f168201915b50505050509080600201805461079190612411565b80601f01602080910402602001604051908101604052809291908181526020018280546107bd90612411565b801561080a5780601f106107df5761010080835404028352916020019161080a565b820191906000526020600020905b8154815290600101906020018083116107ed57829003601f168201915b5050506003909301549192505060ff1684565b6000818152600260205260408120546001600160a01b0316806104865760405162461bcd60e51b8152602060048201526018602482015277115490cdcc8c4e881a5b9d985b1a59081d1bdad95b88125160421b60448201526064016105b9565b60096020526000908152604090208054819061089890612411565b80601f01602080910402602001604051908101604052809291908181526020018280546108c490612411565b80156109115780601f106108e657610100808354040283529160200191610911565b820191906000526020600020905b8154815290600101906020018083116108f457829003601f168201915b50505050509080600101805461092690612411565b80601f016020809104026020016040519081016040528092919081815260200182805461095290612411565b801561099f5780601f106109745761010080835404028352916020019161099f565b820191906000526020600020905b81548152906001019060200180831161098257829003601f168201915b5050505050908060020154908060030180546109ba90612411565b80601f01602080910402602001604051908101604052809291908181526020018280546109e690612411565b8015610a335780601f10610a0857610100808354040283529160200191610a33565b820191906000526020600020905b815481529060010190602001808311610a1657829003601f168201915b505050600490930154919250506001600160a01b031685565b60006001600160a01b038216610ab65760405162461bcd60e51b815260206004820152602960248201527f4552433732313a2061646472657373207a65726f206973206e6f7420612076616044820152683634b21037bbb732b960b91b60648201526084016105b9565b506001600160a01b031660009081526003602052604090205490565b610ada6117ea565b610ae46000611844565b565b610aee6117ea565b6001600160a01b03166000908152600b60205260409020805460ff19169055565b60606001805461049b90612411565b610b29338383611896565b5050565b60608060006060600080600960008881526020019081526020016000206040518060a0016040529081600082018054610b6590612411565b80601f0160208091040260200160405190810160405280929190818152602001828054610b9190612411565b8015610bde5780601f10610bb357610100808354040283529160200191610bde565b820191906000526020600020905b815481529060010190602001808311610bc157829003601f168201915b50505050508152602001600182018054610bf790612411565b80601f0160208091040260200160405190810160405280929190818152602001828054610c2390612411565b8015610c705780601f10610c4557610100808354040283529160200191610c70565b820191906000526020600020905b815481529060010190602001808311610c5357829003601f168201915b5050505050815260200160028201548152602001600382018054610c9390612411565b80601f0160208091040260200160405190810160405280929190818152602001828054610cbf90612411565b8015610d0c5780601f10610ce157610100808354040283529160200191610d0c565b820191906000526020600020905b815481529060010190602001808311610cef57829003601f168201915b5050509183525050600491909101546001600160a01b031660209182015281519082015160408301516060840151608090940151929b919a509850919650945092505050565b600d8054906000610d6283612498565b9091555050604080516080810182523381526020808201858152828401859052600060608401819052600d548152600c909252929020815181546001600160a01b0319166001600160a01b0390911617815591519091906001820190610dc8908261250d565b5060408201516002820190610ddd908261250d565b50606091909101516003909101805460ff19169115159190911790556040516001600160a01b0384169033907f83df18e098d358ae0f6b6f7da909199d688fafbb1de641ba484fd6f3e1aae7a990610e3890869086906125cc565b60405180910390a3505050565b610e4f3383611608565b610e6b5760405162461bcd60e51b81526004016105b99061244b565b610e778484848461195c565b50505050565b600a6020528160005260406000208181548110610e9957600080fd5b90600052602060002001600091509150505481565b6060610eb98261153b565b60008281526006602052604081208054610ed290612411565b80601f0160208091040260200160405190810160405280929190818152602001828054610efe90612411565b8015610f4b5780601f10610f2057610100808354040283529160200191610f4b565b820191906000526020600020905b815481529060010190602001808311610f2e57829003601f168201915b505050505090506000610f6960408051602081019091526000815290565b90508051600003610f7b575092915050565b815115610fad578082604051602001610f959291906125fa565b60405160208183030381529060405292505050919050565b610fb68461198f565b949350505050565b6000838152600c6020526040902080546001600160a01b03166110155760405162461bcd60e51b815260206004820152600f60248201526e125b9d985b1a59081c995c5d595cdd608a1b60448201526064016105b9565b336000908152600b602052604090205460ff166110745760405162461bcd60e51b815260206004820152601960248201527f4e6f7420617574686f72697a656420746f20617070726f76650000000000000060448201526064016105b9565b600381015460ff16156110bc5760405162461bcd60e51b815260206004820152601060248201526f105b1c9958591e48185c1c1c9bdd995960821b60448201526064016105b9565b8054600182018054611208926001600160a01b031691906110dc90612411565b80601f016020809104026020016040519081016040528092919081815260200182805461110890612411565b80156111555780601f1061112a57610100808354040283529160200191611155565b820191906000526020600020905b81548152906001019060200180831161113857829003601f168201915b50505050506009600061116760085490565b8152602001908152602001600020600101805461118390612411565b80601f01602080910402602001604051908101604052809291908181526020018280546111af90612411565b80156111fc5780601f106111d1576101008083540402835291602001916111fc565b820191906000526020600020905b8154815290600101906020018083116111df57829003601f168201915b50505050508686611257565b5060038101805460ff19166001179055805460405133916001600160a01b03169086907ff1ee664cbcdee0c3ae1e95435c6ebcd4f2b82cdc8151eb101a0c1faa00e7bf7290600090a450505050565b336000908152600b602052604081205460ff166112c25760405162461bcd60e51b8152602060048201526024808201527f4e6f7420617574686f72697a656420746f2069737375652063657274696669636044820152636174657360e01b60648201526084016105b9565b6112d0600880546001019055565b60006112db60085490565b90506112e78782611a03565b6112f18184611b8e565b6040805160a08101825287815260208082018890524282840152606082018790526001600160a01b038a16608083015260008481526009909152919091208151819061133d908261250d565b5060208201516001820190611352908261250d565b506040820151600282015560608201516003820190611371908261250d565b5060809190910151600490910180546001600160a01b0319166001600160a01b0392831617905587166000818152600a60209081526040808320805460018101825590845291909220018390555182907f55771991ffa371c9dd2db01cda7cd1f387b5c4799385b30ac842da0ba7824518906113f4908a908a9042908b90612629565b60405180910390a39695505050505050565b6001600160a01b0381166000908152600a602090815260409182902080548351818402810184019094528084526060939283018282801561146657602002820191906000526020600020905b815481526020019060010190808311611452575b50505050509050919050565b61147a6117ea565b6001600160a01b0381166114df5760405162461bcd60e51b815260206004820152602660248201527f4f776e61626c653a206e6577206f776e657220697320746865207a65726f206160448201526564647265737360d01b60648201526084016105b9565b6114e881611844565b50565b60006001600160e01b031982166380ac58cd60e01b148061151c57506001600160e01b03198216635b5e139f60e01b145b8061048657506301ffc9a760e01b6001600160e01b0319831614610486565b6000818152600260205260409020546001600160a01b03166114e85760405162461bcd60e51b8152602060048201526018602482015277115490cdcc8c4e881a5b9d985b1a59081d1bdad95b88125160421b60448201526064016105b9565b600081815260046020526040902080546001600160a01b0319166001600160a01b03841690811790915581906115cf8261081d565b6001600160a01b03167f8c5be1e5ebec7d5bd14f71427d1e84f3dd0314c0f7b2291e5b200ac8c7c3b92560405160405180910390a45050565b6000806116148361081d565b9050806001600160a01b0316846001600160a01b0316148061165b57506001600160a01b0380821660009081526005602090815260408083209388168352929052205460ff165b80610fb65750836001600160a01b03166116748461051e565b6001600160a01b031614949350505050565b826001600160a01b03166116998261081d565b6001600160a01b0316146116bf5760405162461bcd60e51b81526004016105b990612673565b6001600160a01b0382166117215760405162461bcd60e51b8152602060048201526024808201527f4552433732313a207472616e7366657220746f20746865207a65726f206164646044820152637265737360e01b60648201526084016105b9565b826001600160a01b03166117348261081d565b6001600160a01b03161461175a5760405162461bcd60e51b81526004016105b990612673565b600081815260046020908152604080832080546001600160a01b03199081169091556001600160a01b0387811680865260038552838620805460001901905590871680865283862080546001019055868652600290945282852080549092168417909155905184937fddf252ad1be2c89b69c2b068fc378daa952ba7f163c4a11628f55a4df523b3ef91a4505050565b6007546001600160a01b03163314610ae45760405162461bcd60e51b815260206004820181905260248201527f4f776e61626c653a2063616c6c6572206973206e6f7420746865206f776e657260448201526064016105b9565b600780546001600160a01b038381166001600160a01b0319831681179093556040519116919082907f8be0079c531659141344cd1fd0a4f28419497f9722a3daafe3b4186f6b6457e090600090a35050565b816001600160a01b0316836001600160a01b0316036118f75760405162461bcd60e51b815260206004820152601960248201527f4552433732313a20617070726f766520746f2063616c6c65720000000000000060448201526064016105b9565b6001600160a01b03838116600081815260056020908152604080832094871680845294825291829020805460ff191686151590811790915591519182527f17307eab39ab6107e8899845ad3d59bd9653f200f220920489ca2b5937696c319101610e38565b611967848484611686565b61197384848484611c59565b610e775760405162461bcd60e51b81526004016105b9906126b8565b606061199a8261153b565b60006119b160408051602081019091526000815290565b905060008151116119d157604051806020016040528060008152506119fc565b806119db84611d5a565b6040516020016119ec9291906125fa565b6040516020818303038152906040525b9392505050565b6001600160a01b038216611a595760405162461bcd60e51b815260206004820181905260248201527f4552433732313a206d696e7420746f20746865207a65726f206164647265737360448201526064016105b9565b6000818152600260205260409020546001600160a01b031615611abe5760405162461bcd60e51b815260206004820152601c60248201527f4552433732313a20746f6b656e20616c7265616479206d696e7465640000000060448201526064016105b9565b6000818152600260205260409020546001600160a01b031615611b235760405162461bcd60e51b815260206004820152601c60248201527f4552433732313a20746f6b656e20616c7265616479206d696e7465640000000060448201526064016105b9565b6001600160a01b038216600081815260036020908152604080832080546001019055848352600290915280822080546001600160a01b0319168417905551839291907fddf252ad1be2c89b69c2b068fc378daa952ba7f163c4a11628f55a4df523b3ef908290a45050565b6000828152600260205260409020546001600160a01b0316611c095760405162461bcd60e51b815260206004820152602e60248201527f45524337323155524953746f726167653a2055524920736574206f66206e6f6e60448201526d32bc34b9ba32b73a103a37b5b2b760911b60648201526084016105b9565b6000828152600660205260409020611c21828261250d565b506040518281527ff8e1a15aba9398e019f0b49df1a4fde98ee17ae345cb5f6b5e2c27f5033e8ce79060200160405180910390a15050565b60006001600160a01b0384163b15611d4f57604051630a85bd0160e11b81526001600160a01b0385169063150b7a0290611c9d90339089908890889060040161270a565b6020604051808303816000875af1925050508015611cd8575060408051601f3d908101601f19168201909252611cd591810190612747565b60015b611d35573d808015611d06576040519150601f19603f3d011682016040523d82523d6000602084013e611d0b565b606091505b508051600003611d2d5760405162461bcd60e51b81526004016105b9906126b8565b805181602001fd5b6001600160e01b031916630a85bd0160e11b149050610fb6565b506001949350505050565b60606000611d6783611ded565b600101905060008167ffffffffffffffff811115611d8757611d876120f2565b6040519080825280601f01601f191660200182016040528015611db1576020820181803683370190505b5090508181016020015b600019016f181899199a1a9b1b9c1cb0b131b232b360811b600a86061a8153600a8504945084611dbb57509392505050565b60008072184f03e93ff9f4daa797ed6e38ed64bf6a1f0160401b8310611e2c5772184f03e93ff9f4daa797ed6e38ed64bf6a1f0160401b830492506040015b6d04ee2d6d415b85acef81000000008310611e58576d04ee2d6d415b85acef8100000000830492506020015b662386f26fc100008310611e7657662386f26fc10000830492506010015b6305f5e1008310611e8e576305f5e100830492506008015b6127108310611ea257612710830492506004015b60648310611eb4576064830492506002015b600a83106104865760010192915050565b6001600160e01b0319811681146114e857600080fd5b600060208284031215611eed57600080fd5b81356119fc81611ec5565b60005b83811015611f13578181015183820152602001611efb565b50506000910152565b60008151808452611f34816020860160208601611ef8565b601f01601f19169290920160200192915050565b6020815260006119fc6020830184611f1c565b600060208284031215611f6d57600080fd5b5035919050565b80356001600160a01b0381168114611f8b57600080fd5b919050565b60008060408385031215611fa357600080fd5b611fac83611f74565b946020939093013593505050565b600080600060608486031215611fcf57600080fd5b611fd884611f74565b9250611fe660208501611f74565b929592945050506040919091013590565b60006020828403121561200957600080fd5b6119fc82611f74565b6001600160a01b038516815260806020820181905260009061203690830186611f1c565b82810360408401526120488186611f1c565b915050821515606083015295945050505050565b60a08152600061206f60a0830188611f1c565b82810360208401526120818188611f1c565b9050856040840152828103606084015261209b8186611f1c565b91505060018060a01b03831660808301529695505050505050565b600080604083850312156120c957600080fd5b6120d283611f74565b9150602083013580151581146120e757600080fd5b809150509250929050565b634e487b7160e01b600052604160045260246000fd5b60008067ffffffffffffffff841115612123576121236120f2565b50604051601f19601f85018116603f0116810181811067ffffffffffffffff82111715612152576121526120f2565b60405283815290508082840185101561216a57600080fd5b83836020830137600060208583010152509392505050565b600082601f83011261219357600080fd5b6119fc83833560208501612108565b6000806000606084860312156121b757600080fd5b6121c084611f74565b9250602084013567ffffffffffffffff8111156121dc57600080fd5b6121e886828701612182565b925050604084013567ffffffffffffffff81111561220557600080fd5b61221186828701612182565b9150509250925092565b6000806000806080858703121561223157600080fd5b61223a85611f74565b935061224860208601611f74565b925060408501359150606085013567ffffffffffffffff81111561226b57600080fd5b8501601f8101871361227c57600080fd5b61228b87823560208401612108565b91505092959194509250565b6000806000606084860312156122ac57600080fd5b83359250602084013567ffffffffffffffff8111156121dc57600080fd5b600080604083850312156122dd57600080fd5b6122e683611f74565b91506122f460208401611f74565b90509250929050565b600080600080600060a0868803121561231557600080fd5b61231e86611f74565b9450602086013567ffffffffffffffff81111561233a57600080fd5b61234688828901612182565b945050604086013567ffffffffffffffff81111561236357600080fd5b61236f88828901612182565b935050606086013567ffffffffffffffff81111561238c57600080fd5b61239888828901612182565b925050608086013567ffffffffffffffff8111156123b557600080fd5b6123c188828901612182565b9150509295509295909350565b602080825282518282018190526000918401906040840190835b818110156124065783518352602093840193909201916001016123e8565b509095945050505050565b600181811c9082168061242557607f821691505b60208210810361244557634e487b7160e01b600052602260045260246000fd5b50919050565b6020808252602d908201527f4552433732313a2063616c6c6572206973206e6f7420746f6b656e206f776e6560408201526c1c881bdc88185c1c1c9bdd9959609a1b606082015260800190565b6000600182016124b857634e487b7160e01b600052601160045260246000fd5b5060010190565b601f82111561065a57806000526020600020601f840160051c810160208510156124e65750805b601f840160051c820191505b8181101561250657600081556001016124f2565b5050505050565b815167ffffffffffffffff811115612527576125276120f2565b61253b816125358454612411565b846124bf565b6020601f82116001811461256f57600083156125575750848201515b600019600385901b1c1916600184901b178455612506565b600084815260208120601f198516915b8281101561259f578785015182556020948501946001909201910161257f565b50848210156125bd5786840151600019600387901b60f8161c191681555b50505050600190811b01905550565b6040815260006125df6040830185611f1c565b82810360208401526125f18185611f1c565b95945050505050565b6000835161260c818460208801611ef8565b835190830190612620818360208801611ef8565b01949350505050565b60808152600061263c6080830187611f1c565b828103602084015261264e8187611f1c565b905084604084015282810360608401526126688185611f1c565b979650505050505050565b60208082526025908201527f4552433732313a207472616e736665722066726f6d20696e636f72726563742060408201526437bbb732b960d91b606082015260800190565b60208082526032908201527f4552433732313a207472616e7366657220746f206e6f6e20455243373231526560408201527131b2b4bb32b91034b6b83632b6b2b73a32b960711b606082015260800190565b6001600160a01b038581168252841660208201526040810183905260806060820181905260009061273d90830184611f1c565b9695505050505050565b60006020828403121561275957600080fd5b81516119fc81611ec556fea2646970667358221220ceea9bdebcd18212c10a5657832668e3cb7a48647a4eb8d239f40b8ca77f0a3464736f6c634300081c0033",
  "linkReferences": {},
  "deployedLinkReferences": {}
}