{
  "_format": "hh-sol-artifact-1",
  "contractName": "CertificateNFT",
  "sourceName": "contracts/CertificateNFT.sol",
  "abi": [
    {
      "inputs": [],
      "stateMutability": "nonpayable",
      "type": "constructor"
    },
    {
      "anonymous": false,
      "inputs": [
        {
          "indexed": true,
          "internalType": "address",
          "name": "owner",
          "type": "address"
        },
        {
          "indexed": true,
          "internalType": "address",
          "name": "approved",
          "type": "address"
        },
        {
          "indexed": true,
          "internalType": "uint256",
          "name": "tokenId",
          "type": "uint256"
        }
      ],
      "name": "Approval",
      "type": "event"
    },
    {
      "anonymous": false,
      "inputs": [
        {
          "indexed": true,
          "internalType": "address",
          "name": "owner",
          "type": "address"
        },
        {
          "indexed": true,
          "internalType": "address",
          "name": "operator",
          "type": "address"
        },
        {
          "indexed": false,
          "internalType": "bool",
          "name": "approved",
          "type": "bool"
        }
      ],
      "name": "ApprovalForAll",
      "type": "event"
    },
    {
      "anonymous": false,
      "inputs": [
        {
          "indexed": false,
          "internalType": "uint256",
          "name": "_fromTokenId",
          "type": "uint256"
        },
        {
          "indexed": false,
          "internalType": "uint256",
          "name": "_toTokenId",
          "type": "uint256"
        }
      ],
      "name": "BatchMetadataUpdate",
      "type": "event"
    },
    {
      "anonymous": false,
      "inputs": [
        {
          "indexed": true,
          "internalType": "uint256",
          "name": "tokenId",
          "type": "uint256"
        },
        {
          "indexed": true,
          "internalType": "address",
          "name": "student",
          "type": "address"
        },
        {
          "indexed": false,
          "internalType": "string",
          "name": "name",
          "type": "string"
        },
        {
          "indexed": false,
          "internalType": "string",
          "name": "institute",
          "type": "string"
        },
        {
          "indexed": false,
          "internalType": "uint256",
          "name": "issueDate",
          "type": "uint256"
        },
        {
          "indexed": false,
          "internalType": "string",
          "name": "certificateType",
          "type": "string"
        }
      ],
      "name": "CertificateIssued",
      "type": "event"
    },
    {
      "anonymous": false,
      "inputs": [
        {
          "indexed": true,
          "internalType": "uint256",
          "name": "requestId",
          "type": "uint256"
        },
        {
          "indexed": true,
          "internalType": "address",
          "name": "student",
          "type": "address"
        },
        {
          "indexed": true,
          "internalType": "address",
          "name": "institute",
          "type": "address"
        }
      ],
      "name": "CertificateRequestApproved",
      "type": "event"
    },
    {
      "anonymous": false,
      "inputs": [
        {
          "indexed": true,
          "internalType": "uint256",
          "name": "requestId",
          "type": "uint256"
        },
        {
          "indexed": true,
          "internalType": "address",
          "name": "student",
          "type": "address"
        },
        {
          "indexed": true,
          "internalType": "address",
          "name": "institute",
          "type": "address"
        }
      ],
      "name": "CertificateRequestCancelled",
      "type": "event"
    },
    {
      "anonymous": false,
      "inputs": [
        {
          "indexed": true,
          "internalType": "uint256",
          "name": "requestId",
          "type": "uint256"
        },
        {
          "indexed": true,
          "internalType": "address",
          "name": "student",
          "type": "address"
        },
        {
          "indexed": true,
          "internalType": "address",
          "name": "institute",
          "type": "address"
        },
        {
          "indexed": false,
          "internalType": "string",
          "name": "name",
          "type": "string"
        },
        {
          "indexed": false,
          "internalType": "string",
          "name": "message",
          "type": "string"
        },
        {
          "indexed": false,
          "internalType": "string",
          "name": "studentMetadataHash",
          "type": "string"
        }
      ],
      "name": "CertificateRequested",
      "type": "event"
    },
    {
      "anonymous": false,
      "inputs": [
        {
          "indexed": false,
          "internalType": "uint256",
          "name": "_tokenId",
          "type": "uint256"
        }
      ],
      "name": "MetadataUpdate",
      "type": "event"
    },
    {
      "anonymous": false,
      "inputs": [
        {
          "indexed": true,
          "internalType": "address",
          "name": "previousOwner",
          "type": "address"
        },
        {
          "indexed": true,
          "internalType": "address",
          "name": "newOwner",
          "type": "address"
        }
      ],
      "name": "OwnershipTransferred",
      "type": "event"
    },
    {
      "anonymous": false,
      "inputs": [
        {
          "indexed": true,
          "internalType": "address",
          "name": "from",
          "type": "address"
        },
        {
          "indexed": true,
          "internalType": "address",
          "name": "to",
          "type": "address"
        },
        {
          "indexed": true,
          "internalType": "uint256",
          "name": "tokenId",
          "type": "uint256"
        }
      ],
      "name": "Transfer",
      "type": "event"
    },
    {
      "inputs": [
        {
          "internalType": "address",
          "name": "to",
          "type": "address"
        },
        {
          "internalType": "uint256",
          "name": "tokenId",
          "type": "uint256"
        }
      ],
      "name": "approve",
      "outputs": [],
      "stateMutability": "nonpayable",
      "type": "function"
    },
    {
      "inputs": [
        {
          "internalType": "uint256",
          "name": "requestId",
          "type": "uint256"
        },
        {
          "internalType": "string",
          "name": "certificateType",
          "type": "string"
        },
        {
          "internalType": "string",
          "name": "tokenURI",
          "type": "string"
        },
        {
          "internalType": "string",
          "name": "institute",
          "type": "string"
        }
      ],
      "name": "approveCertificateRequest",
      "outputs": [],
      "stateMutability": "nonpayable",
      "type": "function"
    },
    {
      "inputs": [
        {
          "internalType": "address",
          "name": "institute",
          "type": "address"
        }
      ],
      "name": "authorizeInstitute",
      "outputs": [],
      "stateMutability": "nonpayable",
      "type": "function"
    },
    {
      "inputs": [
        {
          "internalType": "address",
          "name": "",
          "type": "address"
        }
      ],
      "name": "authorizedInstitutes",
      "outputs": [
        {
          "internalType": "bool",
          "name": "",
          "type": "bool"
        }
      ],
      "stateMutability": "view",
      "type": "function"
    },
    {
      "inputs": [
        {
          "internalType": "address",
          "name": "owner",
          "type": "address"
        }
      ],
      "name": "balanceOf",
      "outputs": [
        {
          "internalType": "uint256",
          "name": "",
          "type": "uint256"
        }
      ],
      "stateMutability": "view",
      "type": "function"
    },
    {
      "inputs": [
        {
          "internalType": "uint256",
          "name": "requestId",
          "type": "uint256"
        }
      ],
      "name": "cancelCertificateRequest",
      "outputs": [],
      "stateMutability": "nonpayable",
      "type": "function"
    },
    {
      "inputs": [
        {
          "internalType": "uint256",
          "name": "",
          "type": "uint256"
        }
      ],
      "name": "certificateRequests",
      "outputs": [
        {
          "internalType": "address",
          "name": "student",
          "type": "address"
        },
        {
          "internalType": "string",
          "name": "name",
          "type": "string"
        },
        {
          "internalType": "address",
          "name": "institute",
          "type": "address"
        },
        {
          "internalType": "string",
          "name": "message",
          "type": "string"
        },
        {
          "internalType": "string",
          "name": "studentMetadataHash",
          "type": "string"
        },
        {
          "internalType": "bool",
          "name": "approved",
          "type": "bool"
        }
      ],
      "stateMutability": "view",
      "type": "function"
    },
    {
      "inputs": [
        {
          "internalType": "uint256",
          "name": "",
          "type": "uint256"
        }
      ],
      "name": "certificates",
      "outputs": [
        {
          "internalType": "string",
          "name": "name",
          "type": "string"
        },
        {
          "internalType": "string",
          "name": "institute",
          "type": "string"
        },
        {
          "internalType": "uint256",
          "name": "issueDate",
          "type": "uint256"
        },
        {
          "internalType": "string",
          "name": "certificateType",
          "type": "string"
        },
        {
          "internalType": "address",
          "name": "student",
          "type": "address"
        }
      ],
      "stateMutability": "view",
      "type": "function"
    },
    {
      "inputs": [
        {
          "internalType": "uint256",
          "name": "tokenId",
          "type": "uint256"
        }
      ],
      "name": "getApproved",
      "outputs": [
        {
          "internalType": "address",
          "name": "",
          "type": "address"
        }
      ],
      "stateMutability": "view",
      "type": "function"
    },
    {
      "inputs": [
        {
          "internalType": "uint256",
          "name": "tokenId",
          "type": "uint256"
        }
      ],
      "name": "getCertificateDetails",
      "outputs": [
        {
          "internalType": "string",
          "name": "name",
          "type": "string"
        },
        {
          "internalType": "string",
          "name": "institute",
          "type": "string"
        },
        {
          "internalType": "uint256",
          "name": "issueDate",
          "type": "uint256"
        },
        {
          "internalType": "string",
          "name": "certificateType",
          "type": "string"
        },
        {
          "internalType": "address",
          "name": "student",
          "type": "address"
        }
      ],
      "stateMutability": "view",
      "type": "function"
    },
    {
      "inputs": [
        {
          "internalType": "address",
          "name": "student",
          "type": "address"
        }
      ],
      "name": "getStudentCertificates",
      "outputs": [
        {
          "internalType": "uint256[]",
          "name": "",
          "type": "uint256[]"
        }
      ],
      "stateMutability": "view",
      "type": "function"
    },
    {
      "inputs": [
        {
          "internalType": "address",
          "name": "owner",
          "type": "address"
        },
        {
          "internalType": "address",
          "name": "operator",
          "type": "address"
        }
      ],
      "name": "isApprovedForAll",
      "outputs": [
        {
          "internalType": "bool",
          "name": "",
          "type": "bool"
        }
      ],
      "stateMutability": "view",
      "type": "function"
    },
    {
      "inputs": [
        {
          "internalType": "address",
          "name": "student",
          "type": "address"
        },
        {
          "internalType": "string",
          "name": "name",
          "type": "string"
        },
        {
          "internalType": "string",
          "name": "institute",
          "type": "string"
        },
        {
          "internalType": "string",
          "name": "certificateType",
          "type": "string"
        },
        {
          "internalType": "string",
          "name": "tokenURI",
          "type": "string"
        }
      ],
      "name": "issueCertificate",
      "outputs": [
        {
          "internalType": "uint256",
          "name": "",
          "type": "uint256"
        }
      ],
      "stateMutability": "nonpayable",
      "type": "function"
    },
    {
      "inputs": [],
      "name": "name",
      "outputs": [
        {
          "internalType": "string",
          "name": "",
          "type": "string"
        }
      ],
      "stateMutability": "view",
      "type": "function"
    },
    {
      "inputs": [],
      "name": "owner",
      "outputs": [
        {
          "internalType": "address",
          "name": "",
          "type": "address"
        }
      ],
      "stateMutability": "view",
      "type": "function"
    },
    {
      "inputs": [
        {
          "internalType": "uint256",
          "name": "tokenId",
          "type": "uint256"
        }
      ],
      "name": "ownerOf",
      "outputs": [
        {
          "internalType": "address",
          "name": "",
          "type": "address"
        }
      ],
      "stateMutability": "view",
      "type": "function"
    },
    {
      "inputs": [],
      "name": "renounceOwnership",
      "outputs": [],
      "stateMutability": "nonpayable",
      "type": "function"
    },
    {
      "inputs": [
        {
          "internalType": "address",
          "name": "institute",
          "type": "address"
        },
        {
          "internalType": "string",
          "name": "name",
          "type": "string"
        },
        {
          "internalType": "string",
          "name": "message",
          "type": "string"
        },
        {
          "internalType": "string",
          "name": "studentMetadataHash",
          "type": "string"
        }
      ],
      "name": "requestCertificate",
      "outputs": [],
      "stateMutability": "nonpayable",
      "type": "function"
    },
    {
      "inputs": [],
      "name": "requestCounter",
      "outputs": [
        {
          "internalType": "uint256",
          "name": "",
          "type": "uint256"
        }
      ],
      "stateMutability": "view",
      "type": "function"
    },
    {
      "inputs": [
        {
          "internalType": "address",
          "name": "institute",
          "type": "address"
        }
      ],
      "name": "revokeInstitute",
      "outputs": [],
      "stateMutability": "nonpayable",
      "type": "function"
    },
    {
      "inputs": [
        {
          "internalType": "address",
          "name": "from",
          "type": "address"
        },
        {
          "internalType": "address",
          "name": "to",
          "type": "address"
        },
        {
          "internalType": "uint256",
          "name": "tokenId",
          "type": "uint256"
        }
      ],
      "name": "safeTransferFrom",
      "outputs": [],
      "stateMutability": "nonpayable",
      "type": "function"
    },
    {
      "inputs": [
        {
          "internalType": "address",
          "name": "from",
          "type": "address"
        },
        {
          "internalType": "address",
          "name": "to",
          "type": "address"
        },
        {
          "internalType": "uint256",
          "name": "tokenId",
          "type": "uint256"
        },
        {
          "internalType": "bytes",
          "name": "data",
          "type": "bytes"
        }
      ],
      "name": "safeTransferFrom",
      "outputs": [],
      "stateMutability": "nonpayable",
      "type": "function"
    },
    {
      "inputs": [
        {
          "internalType": "address",
          "name": "operator",
          "type": "address"
        },
        {
          "internalType": "bool",
          "name": "approved",
          "type": "bool"
        }
      ],
      "name": "setApprovalForAll",
      "outputs": [],
      "stateMutability": "nonpayable",
      "type": "function"
    },
    {
      "inputs": [
        {
          "internalType": "address",
          "name": "",
          "type": "address"
        },
        {
          "internalType": "uint256",
          "name": "",
          "type": "uint256"
        }
      ],
      "name": "studentCertificates",
      "outputs": [
        {
          "internalType": "uint256",
          "name": "",
          "type": "uint256"
        }
      ],
      "stateMutability": "view",
      "type": "function"
    },
    {
      "inputs": [
        {
          "internalType": "bytes4",
          "name": "interfaceId",
          "type": "bytes4"
        }
      ],
      "name": "supportsInterface",
      "outputs": [
        {
          "internalType": "bool",
          "name": "",
          "type": "bool"
        }
      ],
      "stateMutability": "view",
      "type": "function"
    },
    {
      "inputs": [],
      "name": "symbol",
      "outputs": [
        {
          "internalType": "string",
          "name": "",
          "type": "string"
        }
      ],
      "stateMutability": "view",
      "type": "function"
    },
    {
      "inputs": [
        {
          "internalType": "uint256",
          "name": "tokenId",
          "type": "uint256"
        }
      ],
      "name": "tokenURI",
      "outputs": [
        {
          "internalType": "string",
          "name": "",
          "type": "string"
        }
      ],
      "stateMutability": "view",
      "type": "function"
    },
    {
      "inputs": [
        {
          "internalType": "address",
          "name": "from",
          "type": "address"
        },
        {
          "internalType": "address",
          "name": "to",
          "type": "address"
        },
        {
          "internalType": "uint256",
          "name": "tokenId",
          "type": "uint256"
        }
      ],
      "name": "transferFrom",
      "outputs": [],
      "stateMutability": "nonpayable",
      "type": "function"
    },
    {
      "inputs": [
        {
          "internalType": "address",
          "name": "newOwner",
          "type": "address"
        }
      ],
      "name": "transferOwnership",
      "outputs": [],
      "stateMutability": "nonpayable",
      "type": "function"
    }
  ],
  "bytecode": "0x608060405234801561001057600080fd5b506040518060400160405280601481526020017f41636164656d69632043657274696669636174650000000000000000000000008152506040518060400160405280600481526020016310d1549560e21b81525081600090816100739190610193565b5060016100808282610193565b50505061009961009461009e60201b60201c565b6100a2565b610251565b3390565b600780546001600160a01b038381166001600160a01b0319831681179093556040519116919082907f8be0079c531659141344cd1fd0a4f28419497f9722a3daafe3b4186f6b6457e090600090a35050565b634e487b7160e01b600052604160045260246000fd5b600181811c9082168061011e57607f821691505b60208210810361013e57634e487b7160e01b600052602260045260246000fd5b50919050565b601f82111561018e57806000526020600020601f840160051c8101602085101561016b5750805b601f840160051c820191505b8181101561018b5760008155600101610177565b50505b505050565b81516001600160401b038111156101ac576101ac6100f4565b6101c0816101ba845461010a565b84610144565b6020601f8211600181146101f457600083156101dc5750848201515b600019600385901b1c1916600184901b17845561018b565b600084815260208120601f198516915b828110156102245787850151825560209485019460019092019101610204565b50848210156102425786840151600019600387901b60f8161c191681555b50505050600190811b01905550565b612a54806102606000396000f3fe608060405234801561001057600080fd5b50600436106101cf5760003560e01c80637aa7155b11610104578063b62710d9116100a2578063e985e9c511610071578063e985e9c5146103ff578063e9dd92ee1461043b578063ebc63bc01461044e578063f2fde38b1461046e57600080fd5b8063b62710d9146103b3578063b88d4fde146103c6578063c3934f0e146103d9578063c87b56dd146103ec57600080fd5b806395d89b41116100de57806395d89b411461037c578063973a814e14610384578063a22cb4651461038d578063a901fe5e146103a057600080fd5b80637aa7155b146103455780638da5cb5b14610358578063936286e81461036957600080fd5b80635244f9e1116101715780636352211e1161014b5780636352211e146102e5578063663b3e22146102f857806370a082311461031c578063715018a61461033d57600080fd5b80635244f9e11461028a57806362594b24146102ad5780636332a4ea146102c057600080fd5b8063095ea7b3116101ad578063095ea7b31461023c57806323b872dd1461025157806331dc38ac1461026457806342842e0e1461027757600080fd5b806301ffc9a7146101d457806306fdde03146101fc578063081812fc14610211575b600080fd5b6101e76101e2366004612150565b610481565b60405190151581526020015b60405180910390f35b6102046104ac565b6040516101f391906121bd565b61022461021f3660046121d0565b61053e565b6040516001600160a01b0390911681526020016101f3565b61024f61024a366004612205565b610565565b005b61024f61025f36600461222f565b61067f565b61024f61027236600461231a565b6106b0565b61024f61028536600461222f565b6108a4565b6101e76102983660046123b5565b600b6020526000908152604090205460ff1681565b61024f6102bb3660046123b5565b6108bf565b6102d36102ce3660046121d0565b6108eb565b6040516101f3969594939291906123d0565b6102246102f33660046121d0565b610ad4565b61030b6103063660046121d0565b610b34565b6040516101f395949392919061243f565b61032f61032a3660046123b5565b610d03565b6040519081526020016101f3565b61024f610d89565b61024f6103533660046123b5565b610d9d565b6007546001600160a01b0316610224565b61024f6103773660046121d0565b610dc6565b610204610f76565b61032f600d5481565b61024f61039b366004612499565b610f85565b61030b6103ae3660046121d0565b610f94565b61024f6103c13660046124d5565b6111b9565b61024f6103d436600461250f565b6112fe565b61032f6103e7366004612205565b611336565b6102046103fa3660046121d0565b611367565b6101e761040d36600461257e565b6001600160a01b03918216600090815260056020908152604080832093909416825291909152205460ff1690565b61032f6104493660046125b1565b611477565b61046161045c3660046123b5565b611626565b6040516101f3919061267e565b61024f61047c3660046123b5565b611692565b60006001600160e01b03198216632483248360e11b14806104a657506104a68261170b565b92915050565b6060600080546104bb906126c1565b80601f01602080910402602001604051908101604052809291908181526020018280546104e7906126c1565b80156105345780601f1061050957610100808354040283529160200191610534565b820191906000526020600020905b81548152906001019060200180831161051757829003601f168201915b5050505050905090565b60006105498261175b565b506000908152600460205260409020546001600160a01b031690565b600061057082610ad4565b9050806001600160a01b0316836001600160a01b0316036105e25760405162461bcd60e51b815260206004820152602160248201527f4552433732313a20617070726f76616c20746f2063757272656e74206f776e656044820152603960f91b60648201526084015b60405180910390fd5b336001600160a01b03821614806105fe57506105fe813361040d565b6106705760405162461bcd60e51b815260206004820152603d60248201527f4552433732313a20617070726f76652063616c6c6572206973206e6f7420746f60448201527f6b656e206f776e6572206f7220617070726f76656420666f7220616c6c00000060648201526084016105d9565b61067a83836117ba565b505050565b6106893382611828565b6106a55760405162461bcd60e51b81526004016105d9906126fb565b61067a8383836118a6565b6000848152600c6020526040902080546001600160a01b03166107075760405162461bcd60e51b815260206004820152600f60248201526e125b9d985b1a59081c995c5d595cdd608a1b60448201526064016105d9565b336000908152600b602052604090205460ff166107665760405162461bcd60e51b815260206004820152601960248201527f4e6f7420617574686f72697a656420746f20617070726f76650000000000000060448201526064016105d9565b600581015460ff16156107ae5760405162461bcd60e51b815260206004820152601060248201526f105b1c9958591e48185c1c1c9bdd995960821b60448201526064016105d9565b8054600182018054610854926001600160a01b031691906107ce906126c1565b80601f01602080910402602001604051908101604052809291908181526020018280546107fa906126c1565b80156108475780601f1061081c57610100808354040283529160200191610847565b820191906000526020600020905b81548152906001019060200180831161082a57829003601f168201915b5050505050848787611477565b5060058101805460ff19166001179055805460405133916001600160a01b03169087907ff1ee664cbcdee0c3ae1e95435c6ebcd4f2b82cdc8151eb101a0c1faa00e7bf7290600090a45050505050565b61067a838383604051806020016040528060008152506112fe565b6108c7611a0a565b6001600160a01b03166000908152600b60205260409020805460ff19166001179055565b600c60205260009081526040902080546001820180546001600160a01b039092169291610917906126c1565b80601f0160208091040260200160405190810160405280929190818152602001828054610943906126c1565b80156109905780601f1061096557610100808354040283529160200191610990565b820191906000526020600020905b81548152906001019060200180831161097357829003601f168201915b505050600284015460038501805494956001600160a01b039092169491935091506109ba906126c1565b80601f01602080910402602001604051908101604052809291908181526020018280546109e6906126c1565b8015610a335780601f10610a0857610100808354040283529160200191610a33565b820191906000526020600020905b815481529060010190602001808311610a1657829003601f168201915b505050505090806004018054610a48906126c1565b80601f0160208091040260200160405190810160405280929190818152602001828054610a74906126c1565b8015610ac15780601f10610a9657610100808354040283529160200191610ac1565b820191906000526020600020905b815481529060010190602001808311610aa457829003601f168201915b5050506005909301549192505060ff1686565b6000818152600260205260408120546001600160a01b0316806104a65760405162461bcd60e51b8152602060048201526018602482015277115490cdcc8c4e881a5b9d985b1a59081d1bdad95b88125160421b60448201526064016105d9565b600960205260009081526040902080548190610b4f906126c1565b80601f0160208091040260200160405190810160405280929190818152602001828054610b7b906126c1565b8015610bc85780601f10610b9d57610100808354040283529160200191610bc8565b820191906000526020600020905b815481529060010190602001808311610bab57829003601f168201915b505050505090806001018054610bdd906126c1565b80601f0160208091040260200160405190810160405280929190818152602001828054610c09906126c1565b8015610c565780601f10610c2b57610100808354040283529160200191610c56565b820191906000526020600020905b815481529060010190602001808311610c3957829003601f168201915b505050505090806002015490806003018054610c71906126c1565b80601f0160208091040260200160405190810160405280929190818152602001828054610c9d906126c1565b8015610cea5780601f10610cbf57610100808354040283529160200191610cea565b820191906000526020600020905b815481529060010190602001808311610ccd57829003601f168201915b505050600490930154919250506001600160a01b031685565b60006001600160a01b038216610d6d5760405162461bcd60e51b815260206004820152602960248201527f4552433732313a2061646472657373207a65726f206973206e6f7420612076616044820152683634b21037bbb732b960b91b60648201526084016105d9565b506001600160a01b031660009081526003602052604090205490565b610d91611a0a565b610d9b6000611a64565b565b610da5611a0a565b6001600160a01b03166000908152600b60205260409020805460ff19169055565b6000818152600c6020526040902080546001600160a01b0316610e245760405162461bcd60e51b815260206004820152601660248201527514995c5d595cdd08191bd95cc81b9bdd08195e1a5cdd60521b60448201526064016105d9565b60028101546001600160a01b03163314610e805760405162461bcd60e51b815260206004820152601c60248201527f4e6f74207468652072657175657374696e6720696e737469747574650000000060448201526064016105d9565b600581015460ff1615610ed55760405162461bcd60e51b815260206004820152601860248201527f5265717565737420616c726561647920617070726f766564000000000000000060448201526064016105d9565b6000828152600c6020526040812080546001600160a01b031916815590610eff60018301826120ec565b6002820180546001600160a01b0319169055610f1f6003830160006120ec565b610f2d6004830160006120ec565b50600501805460ff19169055805460405133916001600160a01b03169084907fd5b35f225fd222596d25db994c5c81890a358fc51a63098e887d1025750f38a290600090a45050565b6060600180546104bb906126c1565b610f90338383611ab6565b5050565b60608060006060600080600960008881526020019081526020016000206040518060a0016040529081600082018054610fcc906126c1565b80601f0160208091040260200160405190810160405280929190818152602001828054610ff8906126c1565b80156110455780601f1061101a57610100808354040283529160200191611045565b820191906000526020600020905b81548152906001019060200180831161102857829003601f168201915b5050505050815260200160018201805461105e906126c1565b80601f016020809104026020016040519081016040528092919081815260200182805461108a906126c1565b80156110d75780601f106110ac576101008083540402835291602001916110d7565b820191906000526020600020905b8154815290600101906020018083116110ba57829003601f168201915b50505050508152602001600282015481526020016003820180546110fa906126c1565b80601f0160208091040260200160405190810160405280929190818152602001828054611126906126c1565b80156111735780601f1061114857610100808354040283529160200191611173565b820191906000526020600020905b81548152906001019060200180831161115657829003601f168201915b5050509183525050600491909101546001600160a01b031660209182015281519082015160408301516060840151608090940151929b919a509850919650945092505050565b600d80549060006111c983612748565b90915550506040805160c08101825233815260208082018681526001600160a01b03888116848601526060840187905260808401869052600060a08501819052600d548152600c90935293909120825181546001600160a01b031916941693909317835551909190600182019061124090826127bd565b5060408201516002820180546001600160a01b0319166001600160a01b039092169190911790556060820151600382019061127b90826127bd565b506080820151600482019061129090826127bd565b5060a091909101516005909101805460ff1916911515919091179055600d546040516001600160a01b0386169133917f6cfbe1a9708ed98d926c488c5da68922a21c12ba065f040c172144ce628b849a906112f09088908890889061287b565b60405180910390a450505050565b6113083383611828565b6113245760405162461bcd60e51b81526004016105d9906126fb565b61133084848484611b84565b50505050565b600a602052816000526040600020818154811061135257600080fd5b90600052602060002001600091509150505481565b60606113728261175b565b6000828152600660205260408120805461138b906126c1565b80601f01602080910402602001604051908101604052809291908181526020018280546113b7906126c1565b80156114045780601f106113d957610100808354040283529160200191611404565b820191906000526020600020905b8154815290600101906020018083116113e757829003601f168201915b50505050509050600061142260408051602081019091526000815290565b90508051600003611434575092915050565b81511561146657808260405160200161144e9291906128be565b60405160208183030381529060405292505050919050565b61146f84611bb7565b949350505050565b336000908152600b602052604081205460ff166114e25760405162461bcd60e51b8152602060048201526024808201527f4e6f7420617574686f72697a656420746f2069737375652063657274696669636044820152636174657360e01b60648201526084016105d9565b6114f0600880546001019055565b60006114fb60085490565b90506115078782611c2b565b6115118184611db6565b6040805160a08101825287815260208082018890524282840152606082018790526001600160a01b038a16608083015260008481526009909152919091208151819061155d90826127bd565b506020820151600182019061157290826127bd565b50604082015160028201556060820151600382019061159190826127bd565b5060809190910151600490910180546001600160a01b0319166001600160a01b0392831617905587166000818152600a60209081526040808320805460018101825590845291909220018390555182907f55771991ffa371c9dd2db01cda7cd1f387b5c4799385b30ac842da0ba782451890611614908a908a9042908b906128ed565b60405180910390a39695505050505050565b6001600160a01b0381166000908152600a602090815260409182902080548351818402810184019094528084526060939283018282801561168657602002820191906000526020600020905b815481526020019060010190808311611672575b50505050509050919050565b61169a611a0a565b6001600160a01b0381166116ff5760405162461bcd60e51b815260206004820152602660248201527f4f776e61626c653a206e6577206f776e657220697320746865207a65726f206160448201526564647265737360d01b60648201526084016105d9565b61170881611a64565b50565b60006001600160e01b031982166380ac58cd60e01b148061173c57506001600160e01b03198216635b5e139f60e01b145b806104a657506301ffc9a760e01b6001600160e01b03198316146104a6565b6000818152600260205260409020546001600160a01b03166117085760405162461bcd60e51b8152602060048201526018602482015277115490cdcc8c4e881a5b9d985b1a59081d1bdad95b88125160421b60448201526064016105d9565b600081815260046020526040902080546001600160a01b0319166001600160a01b03841690811790915581906117ef82610ad4565b6001600160a01b03167f8c5be1e5ebec7d5bd14f71427d1e84f3dd0314c0f7b2291e5b200ac8c7c3b92560405160405180910390a45050565b60008061183483610ad4565b9050806001600160a01b0316846001600160a01b0316148061187b57506001600160a01b0380821660009081526005602090815260408083209388168352929052205460ff165b8061146f5750836001600160a01b03166118948461053e565b6001600160a01b031614949350505050565b826001600160a01b03166118b982610ad4565b6001600160a01b0316146118df5760405162461bcd60e51b81526004016105d990612937565b6001600160a01b0382166119415760405162461bcd60e51b8152602060048201526024808201527f4552433732313a207472616e7366657220746f20746865207a65726f206164646044820152637265737360e01b60648201526084016105d9565b826001600160a01b031661195482610ad4565b6001600160a01b03161461197a5760405162461bcd60e51b81526004016105d990612937565b600081815260046020908152604080832080546001600160a01b03199081169091556001600160a01b0387811680865260038552838620805460001901905590871680865283862080546001019055868652600290945282852080549092168417909155905184937fddf252ad1be2c89b69c2b068fc378daa952ba7f163c4a11628f55a4df523b3ef91a4505050565b6007546001600160a01b03163314610d9b5760405162461bcd60e51b815260206004820181905260248201527f4f776e61626c653a2063616c6c6572206973206e6f7420746865206f776e657260448201526064016105d9565b600780546001600160a01b038381166001600160a01b0319831681179093556040519116919082907f8be0079c531659141344cd1fd0a4f28419497f9722a3daafe3b4186f6b6457e090600090a35050565b816001600160a01b0316836001600160a01b031603611b175760405162461bcd60e51b815260206004820152601960248201527f4552433732313a20617070726f766520746f2063616c6c65720000000000000060448201526064016105d9565b6001600160a01b03838116600081815260056020908152604080832094871680845294825291829020805460ff191686151590811790915591519182527f17307eab39ab6107e8899845ad3d59bd9653f200f220920489ca2b5937696c31910160405180910390a3505050565b611b8f8484846118a6565b611b9b84848484611e81565b6113305760405162461bcd60e51b81526004016105d99061297c565b6060611bc28261175b565b6000611bd960408051602081019091526000815290565b90506000815111611bf95760405180602001604052806000815250611c24565b80611c0384611f82565b604051602001611c149291906128be565b6040516020818303038152906040525b9392505050565b6001600160a01b038216611c815760405162461bcd60e51b815260206004820181905260248201527f4552433732313a206d696e7420746f20746865207a65726f206164647265737360448201526064016105d9565b6000818152600260205260409020546001600160a01b031615611ce65760405162461bcd60e51b815260206004820152601c60248201527f4552433732313a20746f6b656e20616c7265616479206d696e7465640000000060448201526064016105d9565b6000818152600260205260409020546001600160a01b031615611d4b5760405162461bcd60e51b815260206004820152601c60248201527f4552433732313a20746f6b656e20616c7265616479206d696e7465640000000060448201526064016105d9565b6001600160a01b038216600081815260036020908152604080832080546001019055848352600290915280822080546001600160a01b0319168417905551839291907fddf252ad1be2c89b69c2b068fc378daa952ba7f163c4a11628f55a4df523b3ef908290a45050565b6000828152600260205260409020546001600160a01b0316611e315760405162461bcd60e51b815260206004820152602e60248201527f45524337323155524953746f726167653a2055524920736574206f66206e6f6e60448201526d32bc34b9ba32b73a103a37b5b2b760911b60648201526084016105d9565b6000828152600660205260409020611e4982826127bd565b506040518281527ff8e1a15aba9398e019f0b49df1a4fde98ee17ae345cb5f6b5e2c27f5033e8ce79060200160405180910390a15050565b60006001600160a01b0384163b15611f7757604051630a85bd0160e11b81526001600160a01b0385169063150b7a0290611ec59033908990889088906004016129ce565b6020604051808303816000875af1925050508015611f00575060408051601f3d908101601f19168201909252611efd91810190612a01565b60015b611f5d573d808015611f2e576040519150601f19603f3d011682016040523d82523d6000602084013e611f33565b606091505b508051600003611f555760405162461bcd60e51b81526004016105d99061297c565b805181602001fd5b6001600160e01b031916630a85bd0160e11b14905061146f565b506001949350505050565b60606000611f8f83612014565b60010190506000816001600160401b03811115611fae57611fae61226c565b6040519080825280601f01601f191660200182016040528015611fd8576020820181803683370190505b5090508181016020015b600019016f181899199a1a9b1b9c1cb0b131b232b360811b600a86061a8153600a8504945084611fe257509392505050565b60008072184f03e93ff9f4daa797ed6e38ed64bf6a1f0160401b83106120535772184f03e93ff9f4daa797ed6e38ed64bf6a1f0160401b830492506040015b6d04ee2d6d415b85acef8100000000831061207f576d04ee2d6d415b85acef8100000000830492506020015b662386f26fc10000831061209d57662386f26fc10000830492506010015b6305f5e10083106120b5576305f5e100830492506008015b61271083106120c957612710830492506004015b606483106120db576064830492506002015b600a83106104a65760010192915050565b5080546120f8906126c1565b6000825580601f10612108575050565b601f01602090049060005260206000209081019061170891905b808211156121365760008155600101612122565b5090565b6001600160e01b03198116811461170857600080fd5b60006020828403121561216257600080fd5b8135611c248161213a565b60005b83811015612188578181015183820152602001612170565b50506000910152565b600081518084526121a981602086016020860161216d565b601f01601f19169290920160200192915050565b602081526000611c246020830184612191565b6000602082840312156121e257600080fd5b5035919050565b80356001600160a01b038116811461220057600080fd5b919050565b6000806040838503121561221857600080fd5b612221836121e9565b946020939093013593505050565b60008060006060848603121561224457600080fd5b61224d846121e9565b925061225b602085016121e9565b929592945050506040919091013590565b634e487b7160e01b600052604160045260246000fd5b6000806001600160401b0384111561229c5761229c61226c565b50604051601f19601f85018116603f011681018181106001600160401b03821117156122ca576122ca61226c565b6040528381529050808284018510156122e257600080fd5b83836020830137600060208583010152509392505050565b600082601f83011261230b57600080fd5b611c2483833560208501612282565b6000806000806080858703121561233057600080fd5b8435935060208501356001600160401b0381111561234d57600080fd5b612359878288016122fa565b93505060408501356001600160401b0381111561237557600080fd5b612381878288016122fa565b92505060608501356001600160401b0381111561239d57600080fd5b6123a9878288016122fa565b91505092959194509250565b6000602082840312156123c757600080fd5b611c24826121e9565b6001600160a01b038716815260c0602082018190526000906123f490830188612191565b6001600160a01b038716604084015282810360608401526124158187612191565b905082810360808401526124298186612191565b91505082151560a0830152979650505050505050565b60a08152600061245260a0830188612191565b82810360208401526124648188612191565b9050856040840152828103606084015261247e8186612191565b91505060018060a01b03831660808301529695505050505050565b600080604083850312156124ac57600080fd5b6124b5836121e9565b9150602083013580151581146124ca57600080fd5b809150509250929050565b600080600080608085870312156124eb57600080fd5b6124f4856121e9565b935060208501356001600160401b0381111561234d57600080fd5b6000806000806080858703121561252557600080fd5b61252e856121e9565b935061253c602086016121e9565b92506040850135915060608501356001600160401b0381111561255e57600080fd5b8501601f8101871361256f57600080fd5b6123a987823560208401612282565b6000806040838503121561259157600080fd5b61259a836121e9565b91506125a8602084016121e9565b90509250929050565b600080600080600060a086880312156125c957600080fd5b6125d2866121e9565b945060208601356001600160401b038111156125ed57600080fd5b6125f9888289016122fa565b94505060408601356001600160401b0381111561261557600080fd5b612621888289016122fa565b93505060608601356001600160401b0381111561263d57600080fd5b612649888289016122fa565b92505060808601356001600160401b0381111561266557600080fd5b612671888289016122fa565b9150509295509295909350565b602080825282518282018190526000918401906040840190835b818110156126b6578351835260209384019390920191600101612698565b509095945050505050565b600181811c908216806126d557607f821691505b6020821081036126f557634e487b7160e01b600052602260045260246000fd5b50919050565b6020808252602d908201527f4552433732313a2063616c6c6572206973206e6f7420746f6b656e206f776e6560408201526c1c881bdc88185c1c1c9bdd9959609a1b606082015260800190565b60006001820161276857634e487b7160e01b600052601160045260246000fd5b5060010190565b601f82111561067a57806000526020600020601f840160051c810160208510156127965750805b601f840160051c820191505b818110156127b657600081556001016127a2565b5050505050565b81516001600160401b038111156127d6576127d661226c565b6127ea816127e484546126c1565b8461276f565b6020601f82116001811461281e57600083156128065750848201515b600019600385901b1c1916600184901b1784556127b6565b600084815260208120601f198516915b8281101561284e578785015182556020948501946001909201910161282e565b508482101561286c5786840151600019600387901b60f8161c191681555b50505050600190811b01905550565b60608152600061288e6060830186612191565b82810360208401526128a08186612191565b905082810360408401526128b48185612191565b9695505050505050565b600083516128d081846020880161216d565b8351908301906128e481836020880161216d565b01949350505050565b6080815260006129006080830187612191565b82810360208401526129128187612191565b9050846040840152828103606084015261292c8185612191565b979650505050505050565b60208082526025908201527f4552433732313a207472616e736665722066726f6d20696e636f72726563742060408201526437bbb732b960d91b606082015260800190565b60208082526032908201527f4552433732313a207472616e7366657220746f206e6f6e20455243373231526560408201527131b2b4bb32b91034b6b83632b6b2b73a32b960711b606082015260800190565b6001600160a01b03858116825284166020820152604081018390526080606082018190526000906128b490830184612191565b600060208284031215612a1357600080fd5b8151611c248161213a56fea2646970667358221220ca6e2c017dc643f16f39fd019e0d12ac39068cb8a92263fa69e78f79123c0e5264736f6c634300081c0033",
  "linkReferences": {},
  "deployedLinkReferences": {}
}