{
  "_format": "hh-sol-artifact-1",
  "contractName": "UserRegistry",
  "sourceName": "contracts/UserRegistry.sol",
  "abi": [
    {
      "anonymous": false,
      "inputs": [
        {
          "indexed": true,
          "internalType": "address",
          "name": "user",
          "type": "address"
        },
        {
          "indexed": false,
          "internalType": "string",
          "name": "role",
          "type": "string"
        },
        {
          "indexed": false,
          "internalType": "string",
          "name": "metadataHash",
          "type": "string"
        }
      ],
      "name": "Registered",
      "type": "event"
    },
    {
      "inputs": [],
      "name": "getAllUsers",
      "outputs": [
        {
          "internalType": "address[]",
          "name": "",
          "type": "address[]"
        }
      ],
      "stateMutability": "view",
      "type": "function"
    },
    {
      "inputs": [
        {
          "internalType": "address",
          "name": "userAddress",
          "type": "address"
        }
      ],
      "name": "getUser",
      "outputs": [
        {
          "internalType": "string",
          "name": "role",
          "type": "string"
        },
        {
          "internalType": "string",
          "name": "metadataHash",
          "type": "string"
        }
      ],
      "stateMutability": "view",
      "type": "function"
    },
    {
      "inputs": [
        {
          "internalType": "address",
          "name": "userAddress",
          "type": "address"
        }
      ],
      "name": "isUserRegistered",
      "outputs": [
        {
          "internalType": "bool",
          "name": "",
          "type": "bool"
        }
      ],
      "stateMutability": "view",
      "type": "function"
    },
    {
      "inputs": [
        {
          "internalType": "string",
          "name": "role",
          "type": "string"
        },
        {
          "internalType": "string",
          "name": "metadataHash",
          "type": "string"
        }
      ],
      "name": "registerUser",
      "outputs": [],
      "stateMutability": "nonpayable",
      "type": "function"
    },
    {
      "inputs": [
        {
          "internalType": "address",
          "name": "",
          "type": "address"
        }
      ],
      "name": "users",
      "outputs": [
        {
          "internalType": "string",
          "name": "role",
          "type": "string"
        },
        {
          "internalType": "string",
          "name": "metadataHash",
          "type": "string"
        }
      ],
      "stateMutability": "view",
      "type": "function"
    }
  ],
  "bytecode": "0x6080604052348015600f57600080fd5b506108af8061001f6000396000f3fe608060405234801561001057600080fd5b50600436106100575760003560e01c8063163f75221461005c5780631d2e4afd146100845780636f77926b14610099578063a87430ba146100ba578063e2842d79146100cd575b600080fd5b61006f61006a366004610533565b6100e2565b60405190151581526020015b60405180910390f35b610097610092366004610608565b610112565b005b6100ac6100a7366004610533565b610237565b60405161007b9291906106b7565b6100ac6100c8366004610533565b6103a5565b6100d56104d1565b60405161007b91906106e5565b6001600160a01b0381166000908152602081905260408120805482919061010890610731565b9050119050919050565b336000908152602081905260409020805461012c90610731565b1590506101745760405162461bcd60e51b8152602060048201526012602482015271105b1c9958591e481c9959da5cdd195c995960721b604482015260640160405180910390fd5b600180548082019091557fb10e2d527612073b26eecdfd717e6a320cf44b4afac2b0732d9fcbe2b7fa0cf60180546001600160a01b03191633908117909155604080518082018252848152602081810185905260009384528390529120815181906101df90826107ba565b50602082015160018201906101f490826107ba565b50506040513391507f80788e6e1951532975ceb5ca698dfbf35d3a99bc9c440d8e1bb7301534ab72a29061022b90859085906106b7565b60405180910390a25050565b6060806000806000856001600160a01b03166001600160a01b0316815260200190815260200160002060405180604001604052908160008201805461027b90610731565b80601f01602080910402602001604051908101604052809291908181526020018280546102a790610731565b80156102f45780601f106102c9576101008083540402835291602001916102f4565b820191906000526020600020905b8154815290600101906020018083116102d757829003601f168201915b5050505050815260200160018201805461030d90610731565b80601f016020809104026020016040519081016040528092919081815260200182805461033990610731565b80156103865780601f1061035b57610100808354040283529160200191610386565b820191906000526020600020905b81548152906001019060200180831161036957829003601f168201915b5050505050815250509050806000015181602001519250925050915091565b6000602081905290815260409020805481906103c090610731565b80601f01602080910402602001604051908101604052809291908181526020018280546103ec90610731565b80156104395780601f1061040e57610100808354040283529160200191610439565b820191906000526020600020905b81548152906001019060200180831161041c57829003601f168201915b50505050509080600101805461044e90610731565b80601f016020809104026020016040519081016040528092919081815260200182805461047a90610731565b80156104c75780601f1061049c576101008083540402835291602001916104c7565b820191906000526020600020905b8154815290600101906020018083116104aa57829003601f168201915b5050505050905082565b6060600180548060200260200160405190810160405280929190818152602001828054801561052957602002820191906000526020600020905b81546001600160a01b0316815260019091019060200180831161050b575b5050505050905090565b60006020828403121561054557600080fd5b81356001600160a01b038116811461055c57600080fd5b9392505050565b634e487b7160e01b600052604160045260246000fd5b600082601f83011261058a57600080fd5b813567ffffffffffffffff8111156105a4576105a4610563565b604051601f8201601f19908116603f0116810167ffffffffffffffff811182821017156105d3576105d3610563565b6040528181528382016020018510156105eb57600080fd5b816020850160208301376000918101602001919091529392505050565b6000806040838503121561061b57600080fd5b823567ffffffffffffffff81111561063257600080fd5b61063e85828601610579565b925050602083013567ffffffffffffffff81111561065b57600080fd5b61066785828601610579565b9150509250929050565b6000815180845260005b818110156106975760208185018101518683018201520161067b565b506000602082860101526020601f19601f83011685010191505092915050565b6040815260006106ca6040830185610671565b82810360208401526106dc8185610671565b95945050505050565b602080825282518282018190526000918401906040840190835b818110156107265783516001600160a01b03168352602093840193909201916001016106ff565b509095945050505050565b600181811c9082168061074557607f821691505b60208210810361076557634e487b7160e01b600052602260045260246000fd5b50919050565b601f8211156107b557806000526020600020601f840160051c810160208510156107925750805b601f840160051c820191505b818110156107b2576000815560010161079e565b50505b505050565b815167ffffffffffffffff8111156107d4576107d4610563565b6107e8816107e28454610731565b8461076b565b6020601f82116001811461081c57600083156108045750848201515b600019600385901b1c1916600184901b1784556107b2565b600084815260208120601f198516915b8281101561084c578785015182556020948501946001909201910161082c565b508482101561086a5786840151600019600387901b60f8161c191681555b50505050600190811b0190555056fea2646970667358221220b78f02dadbc6d1dc81e4d875f2cb0ea397861c33a25cc0091bb4f6436c32723164736f6c634300081c0033",
  "linkReferences": {},
  "deployedLinkReferences": {}
}