{
  "_format": "hh-sol-artifact-1",
  "contractName": "CertificateNFT",
  "sourceName": "contracts/CertificateNFT .sol",
  "abi": [
    {
      "inputs": [],
      "stateMutability": "nonpayable",
      "type": "constructor"
    },
    {
      "anonymous": false,
      "inputs": [
        {
          "indexed": true,
          "internalType": "address",
          "name": "owner",
          "type": "address"
        },
        {
          "indexed": true,
          "internalType": "address",
          "name": "approved",
          "type": "address"
        },
        {
          "indexed": true,
          "internalType": "uint256",
          "name": "tokenId",
          "type": "uint256"
        }
      ],
      "name": "Approval",
      "type": "event"
    },
    {
      "anonymous": false,
      "inputs": [
        {
          "indexed": true,
          "internalType": "address",
          "name": "owner",
          "type": "address"
        },
        {
          "indexed": true,
          "internalType": "address",
          "name": "operator",
          "type": "address"
        },
        {
          "indexed": false,
          "internalType": "bool",
          "name": "approved",
          "type": "bool"
        }
      ],
      "name": "ApprovalForAll",
      "type": "event"
    },
    {
      "anonymous": false,
      "inputs": [
        {
          "indexed": false,
          "internalType": "uint256",
          "name": "_fromTokenId",
          "type": "uint256"
        },
        {
          "indexed": false,
          "internalType": "uint256",
          "name": "_toTokenId",
          "type": "uint256"
        }
      ],
      "name": "BatchMetadataUpdate",
      "type": "event"
    },
    {
      "anonymous": false,
      "inputs": [
        {
          "indexed": true,
          "internalType": "uint256",
          "name": "tokenId",
          "type": "uint256"
        },
        {
          "indexed": true,
          "internalType": "address",
          "name": "student",
          "type": "address"
        },
        {
          "indexed": false,
          "internalType": "string",
          "name": "name",
          "type": "string"
        },
        {
          "indexed": false,
          "internalType": "string",
          "name": "institute",
          "type": "string"
        },
        {
          "indexed": false,
          "internalType": "uint256",
          "name": "issueDate",
          "type": "uint256"
        },
        {
          "indexed": false,
          "internalType": "string",
          "name": "certificateType",
          "type": "string"
        }
      ],
      "name": "CertificateIssued",
      "type": "event"
    },
    {
      "anonymous": false,
      "inputs": [
        {
          "indexed": true,
          "internalType": "address",
          "name": "student",
          "type": "address"
        },
        {
          "indexed": true,
          "internalType": "address",
          "name": "institute",
          "type": "address"
        },
        {
          "indexed": false,
          "internalType": "string",
          "name": "name",
          "type": "string"
        },
        {
          "indexed": false,
          "internalType": "string",
          "name": "message",
          "type": "string"
        }
      ],
      "name": "CertificateRequested",
      "type": "event"
    },
    {
      "anonymous": false,
      "inputs": [
        {
          "indexed": false,
          "internalType": "uint256",
          "name": "_tokenId",
          "type": "uint256"
        }
      ],
      "name": "MetadataUpdate",
      "type": "event"
    },
    {
      "anonymous": false,
      "inputs": [
        {
          "indexed": true,
          "internalType": "address",
          "name": "previousOwner",
          "type": "address"
        },
        {
          "indexed": true,
          "internalType": "address",
          "name": "newOwner",
          "type": "address"
        }
      ],
      "name": "OwnershipTransferred",
      "type": "event"
    },
    {
      "anonymous": false,
      "inputs": [
        {
          "indexed": true,
          "internalType": "address",
          "name": "from",
          "type": "address"
        },
        {
          "indexed": true,
          "internalType": "address",
          "name": "to",
          "type": "address"
        },
        {
          "indexed": true,
          "internalType": "uint256",
          "name": "tokenId",
          "type": "uint256"
        }
      ],
      "name": "Transfer",
      "type": "event"
    },
    {
      "inputs": [
        {
          "internalType": "address",
          "name": "to",
          "type": "address"
        },
        {
          "internalType": "uint256",
          "name": "tokenId",
          "type": "uint256"
        }
      ],
      "name": "approve",
      "outputs": [],
      "stateMutability": "nonpayable",
      "type": "function"
    },
    {
      "inputs": [
        {
          "internalType": "address",
          "name": "institute",
          "type": "address"
        }
      ],
      "name": "authorizeInstitute",
      "outputs": [],
      "stateMutability": "nonpayable",
      "type": "function"
    },
    {
      "inputs": [
        {
          "internalType": "address",
          "name": "",
          "type": "address"
        }
      ],
      "name": "authorizedInstitutes",
      "outputs": [
        {
          "internalType": "bool",
          "name": "",
          "type": "bool"
        }
      ],
      "stateMutability": "view",
      "type": "function"
    },
    {
      "inputs": [
        {
          "internalType": "address",
          "name": "owner",
          "type": "address"
        }
      ],
      "name": "balanceOf",
      "outputs": [
        {
          "internalType": "uint256",
          "name": "",
          "type": "uint256"
        }
      ],
      "stateMutability": "view",
      "type": "function"
    },
    {
      "inputs": [
        {
          "internalType": "uint256",
          "name": "",
          "type": "uint256"
        }
      ],
      "name": "certificates",
      "outputs": [
        {
          "internalType": "string",
          "name": "name",
          "type": "string"
        },
        {
          "internalType": "string",
          "name": "institute",
          "type": "string"
        },
        {
          "internalType": "uint256",
          "name": "issueDate",
          "type": "uint256"
        },
        {
          "internalType": "string",
          "name": "certificateType",
          "type": "string"
        },
        {
          "internalType": "address",
          "name": "student",
          "type": "address"
        }
      ],
      "stateMutability": "view",
      "type": "function"
    },
    {
      "inputs": [
        {
          "internalType": "uint256",
          "name": "tokenId",
          "type": "uint256"
        }
      ],
      "name": "getApproved",
      "outputs": [
        {
          "internalType": "address",
          "name": "",
          "type": "address"
        }
      ],
      "stateMutability": "view",
      "type": "function"
    },
    {
      "inputs": [
        {
          "internalType": "uint256",
          "name": "tokenId",
          "type": "uint256"
        }
      ],
      "name": "getCertificateDetails",
      "outputs": [
        {
          "internalType": "string",
          "name": "name",
          "type": "string"
        },
        {
          "internalType": "string",
          "name": "institute",
          "type": "string"
        },
        {
          "internalType": "uint256",
          "name": "issueDate",
          "type": "uint256"
        },
        {
          "internalType": "string",
          "name": "certificateType",
          "type": "string"
        },
        {
          "internalType": "address",
          "name": "student",
          "type": "address"
        }
      ],
      "stateMutability": "view",
      "type": "function"
    },
    {
      "inputs": [
        {
          "internalType": "address",
          "name": "student",
          "type": "address"
        }
      ],
      "name": "getStudentCertificates",
      "outputs": [
        {
          "internalType": "uint256[]",
          "name": "",
          "type": "uint256[]"
        }
      ],
      "stateMutability": "view",
      "type": "function"
    },
    {
      "inputs": [
        {
          "internalType": "address",
          "name": "owner",
          "type": "address"
        },
        {
          "internalType": "address",
          "name": "operator",
          "type": "address"
        }
      ],
      "name": "isApprovedForAll",
      "outputs": [
        {
          "internalType": "bool",
          "name": "",
          "type": "bool"
        }
      ],
      "stateMutability": "view",
      "type": "function"
    },
    {
      "inputs": [
        {
          "internalType": "address",
          "name": "student",
          "type": "address"
        },
        {
          "internalType": "string",
          "name": "name",
          "type": "string"
        },
        {
          "internalType": "string",
          "name": "institute",
          "type": "string"
        },
        {
          "internalType": "string",
          "name": "certificateType",
          "type": "string"
        },
        {
          "internalType": "string",
          "name": "tokenURI",
          "type": "string"
        }
      ],
      "name": "issueCertificate",
      "outputs": [
        {
          "internalType": "uint256",
          "name": "",
          "type": "uint256"
        }
      ],
      "stateMutability": "nonpayable",
      "type": "function"
    },
    {
      "inputs": [],
      "name": "name",
      "outputs": [
        {
          "internalType": "string",
          "name": "",
          "type": "string"
        }
      ],
      "stateMutability": "view",
      "type": "function"
    },
    {
      "inputs": [],
      "name": "owner",
      "outputs": [
        {
          "internalType": "address",
          "name": "",
          "type": "address"
        }
      ],
      "stateMutability": "view",
      "type": "function"
    },
    {
      "inputs": [
        {
          "internalType": "uint256",
          "name": "tokenId",
          "type": "uint256"
        }
      ],
      "name": "ownerOf",
      "outputs": [
        {
          "internalType": "address",
          "name": "",
          "type": "address"
        }
      ],
      "stateMutability": "view",
      "type": "function"
    },
    {
      "inputs": [],
      "name": "renounceOwnership",
      "outputs": [],
      "stateMutability": "nonpayable",
      "type": "function"
    },
    {
      "inputs": [
        {
          "internalType": "address",
          "name": "institute",
          "type": "address"
        },
        {
          "internalType": "string",
          "name": "name",
          "type": "string"
        },
        {
          "internalType": "string",
          "name": "message",
          "type": "string"
        }
      ],
      "name": "requestCertificate",
      "outputs": [],
      "stateMutability": "nonpayable",
      "type": "function"
    },
    {
      "inputs": [
        {
          "internalType": "address",
          "name": "institute",
          "type": "address"
        }
      ],
      "name": "revokeInstitute",
      "outputs": [],
      "stateMutability": "nonpayable",
      "type": "function"
    },
    {
      "inputs": [
        {
          "internalType": "address",
          "name": "from",
          "type": "address"
        },
        {
          "internalType": "address",
          "name": "to",
          "type": "address"
        },
        {
          "internalType": "uint256",
          "name": "tokenId",
          "type": "uint256"
        }
      ],
      "name": "safeTransferFrom",
      "outputs": [],
      "stateMutability": "nonpayable",
      "type": "function"
    },
    {
      "inputs": [
        {
          "internalType": "address",
          "name": "from",
          "type": "address"
        },
        {
          "internalType": "address",
          "name": "to",
          "type": "address"
        },
        {
          "internalType": "uint256",
          "name": "tokenId",
          "type": "uint256"
        },
        {
          "internalType": "bytes",
          "name": "data",
          "type": "bytes"
        }
      ],
      "name": "safeTransferFrom",
      "outputs": [],
      "stateMutability": "nonpayable",
      "type": "function"
    },
    {
      "inputs": [
        {
          "internalType": "address",
          "name": "operator",
          "type": "address"
        },
        {
          "internalType": "bool",
          "name": "approved",
          "type": "bool"
        }
      ],
      "name": "setApprovalForAll",
      "outputs": [],
      "stateMutability": "nonpayable",
      "type": "function"
    },
    {
      "inputs": [
        {
          "internalType": "address",
          "name": "",
          "type": "address"
        },
        {
          "internalType": "uint256",
          "name": "",
          "type": "uint256"
        }
      ],
      "name": "studentCertificates",
      "outputs": [
        {
          "internalType": "uint256",
          "name": "",
          "type": "uint256"
        }
      ],
      "stateMutability": "view",
      "type": "function"
    },
    {
      "inputs": [
        {
          "internalType": "bytes4",
          "name": "interfaceId",
          "type": "bytes4"
        }
      ],
      "name": "supportsInterface",
      "outputs": [
        {
          "internalType": "bool",
          "name": "",
          "type": "bool"
        }
      ],
      "stateMutability": "view",
      "type": "function"
    },
    {
      "inputs": [],
      "name": "symbol",
      "outputs": [
        {
          "internalType": "string",
          "name": "",
          "type": "string"
        }
      ],
      "stateMutability": "view",
      "type": "function"
    },
    {
      "inputs": [
        {
          "internalType": "uint256",
          "name": "tokenId",
          "type": "uint256"
        }
      ],
      "name": "tokenURI",
      "outputs": [
        {
          "internalType": "string",
          "name": "",
          "type": "string"
        }
      ],
      "stateMutability": "view",
      "type": "function"
    },
    {
      "inputs": [
        {
          "internalType": "address",
          "name": "from",
          "type": "address"
        },
        {
          "internalType": "address",
          "name": "to",
          "type": "address"
        },
        {
          "internalType": "uint256",
          "name": "tokenId",
          "type": "uint256"
        }
      ],
      "name": "transferFrom",
      "outputs": [],
      "stateMutability": "nonpayable",
      "type": "function"
    },
    {
      "inputs": [
        {
          "internalType": "address",
          "name": "newOwner",
          "type": "address"
        }
      ],
      "name": "transferOwnership",
      "outputs": [],
      "stateMutability": "nonpayable",
      "type": "function"
    }
  ],
  "bytecode": "0x608060405234801561001057600080fd5b506040518060400160405280601481526020017f41636164656d69632043657274696669636174650000000000000000000000008152506040518060400160405280600481526020016310d1549560e21b81525081600090816100739190610193565b5060016100808282610193565b50505061009961009461009e60201b60201c565b6100a2565b610251565b3390565b600780546001600160a01b038381166001600160a01b0319831681179093556040519116919082907f8be0079c531659141344cd1fd0a4f28419497f9722a3daafe3b4186f6b6457e090600090a35050565b634e487b7160e01b600052604160045260246000fd5b600181811c9082168061011e57607f821691505b60208210810361013e57634e487b7160e01b600052602260045260246000fd5b50919050565b601f82111561018e57806000526020600020601f840160051c8101602085101561016b5750805b601f840160051c820191505b8181101561018b5760008155600101610177565b50505b505050565b81516001600160401b038111156101ac576101ac6100f4565b6101c0816101ba845461010a565b84610144565b6020601f8211600181146101f457600083156101dc5750848201515b600019600385901b1c1916600184901b17845561018b565b600084815260208120601f198516915b828110156102245787850151825560209485019460019092019101610204565b50848210156102425786840151600019600387901b60f8161c191681555b50505050600190811b01905550565b6121e6806102606000396000f3fe608060405234801561001057600080fd5b50600436106101735760003560e01c80637aa7155b116100de578063b88d4fde11610097578063e985e9c511610071578063e985e9c51461034f578063e9dd92ee1461038b578063ebc63bc01461039e578063f2fde38b146103be57600080fd5b8063b88d4fde14610316578063c3934f0e14610329578063c87b56dd1461033c57600080fd5b80637aa7155b146102b15780638da5cb5b146102c457806395d89b41146102d5578063a22cb465146102dd578063a901fe5e146102f0578063aba16e371461030357600080fd5b80635244f9e1116101305780635244f9e11461021b57806362594b241461023e5780636352211e14610251578063663b3e221461026457806370a0823114610288578063715018a6146102a957600080fd5b806301ffc9a71461017857806306fdde03146101a0578063081812fc146101b5578063095ea7b3146101e057806323b872dd146101f557806342842e0e14610208575b600080fd5b61018b6101863660046119cb565b6103d1565b60405190151581526020015b60405180910390f35b6101a86103fc565b6040516101979190611a38565b6101c86101c3366004611a4b565b61048e565b6040516001600160a01b039091168152602001610197565b6101f36101ee366004611a80565b6104b5565b005b6101f3610203366004611aaa565b6105cf565b6101f3610216366004611aaa565b610600565b61018b610229366004611ae7565b600b6020526000908152604090205460ff1681565b6101f361024c366004611ae7565b61061b565b6101c861025f366004611a4b565b610647565b610277610272366004611a4b565b6106a7565b604051610197959493929190611b02565b61029b610296366004611ae7565b610876565b604051908152602001610197565b6101f36108fc565b6101f36102bf366004611ae7565b610910565b6007546001600160a01b03166101c8565b6101a8610939565b6101f36102eb366004611b5c565b610948565b6102776102fe366004611a4b565b610957565b6101f3610311366004611c48565b610b7c565b6101f3610324366004611cc1565b610bce565b61029b610337366004611a80565b610c06565b6101a861034a366004611a4b565b610c37565b61018b61035d366004611d3d565b6001600160a01b03918216600090815260056020908152604080832093909416825291909152205460ff1690565b61029b610399366004611d70565b610d47565b6103b16103ac366004611ae7565b610ef6565b6040516101979190611e41565b6101f36103cc366004611ae7565b610f62565b60006001600160e01b03198216632483248360e11b14806103f657506103f682610fdb565b92915050565b60606000805461040b90611e84565b80601f016020809104026020016040519081016040528092919081815260200182805461043790611e84565b80156104845780601f1061045957610100808354040283529160200191610484565b820191906000526020600020905b81548152906001019060200180831161046757829003601f168201915b5050505050905090565b60006104998261102b565b506000908152600460205260409020546001600160a01b031690565b60006104c082610647565b9050806001600160a01b0316836001600160a01b0316036105325760405162461bcd60e51b815260206004820152602160248201527f4552433732313a20617070726f76616c20746f2063757272656e74206f776e656044820152603960f91b60648201526084015b60405180910390fd5b336001600160a01b038216148061054e575061054e813361035d565b6105c05760405162461bcd60e51b815260206004820152603d60248201527f4552433732313a20617070726f76652063616c6c6572206973206e6f7420746f60448201527f6b656e206f776e6572206f7220617070726f76656420666f7220616c6c0000006064820152608401610529565b6105ca838361108a565b505050565b6105d933826110f8565b6105f55760405162461bcd60e51b815260040161052990611ebe565b6105ca838383611176565b6105ca83838360405180602001604052806000815250610bce565b6106236112da565b6001600160a01b03166000908152600b60205260409020805460ff19166001179055565b6000818152600260205260408120546001600160a01b0316806103f65760405162461bcd60e51b8152602060048201526018602482015277115490cdcc8c4e881a5b9d985b1a59081d1bdad95b88125160421b6044820152606401610529565b6009602052600090815260409020805481906106c290611e84565b80601f01602080910402602001604051908101604052809291908181526020018280546106ee90611e84565b801561073b5780601f106107105761010080835404028352916020019161073b565b820191906000526020600020905b81548152906001019060200180831161071e57829003601f168201915b50505050509080600101805461075090611e84565b80601f016020809104026020016040519081016040528092919081815260200182805461077c90611e84565b80156107c95780601f1061079e576101008083540402835291602001916107c9565b820191906000526020600020905b8154815290600101906020018083116107ac57829003601f168201915b5050505050908060020154908060030180546107e490611e84565b80601f016020809104026020016040519081016040528092919081815260200182805461081090611e84565b801561085d5780601f106108325761010080835404028352916020019161085d565b820191906000526020600020905b81548152906001019060200180831161084057829003601f168201915b505050600490930154919250506001600160a01b031685565b60006001600160a01b0382166108e05760405162461bcd60e51b815260206004820152602960248201527f4552433732313a2061646472657373207a65726f206973206e6f7420612076616044820152683634b21037bbb732b960b91b6064820152608401610529565b506001600160a01b031660009081526003602052604090205490565b6109046112da565b61090e6000611334565b565b6109186112da565b6001600160a01b03166000908152600b60205260409020805460ff19169055565b60606001805461040b90611e84565b610953338383611386565b5050565b60608060006060600080600960008881526020019081526020016000206040518060a001604052908160008201805461098f90611e84565b80601f01602080910402602001604051908101604052809291908181526020018280546109bb90611e84565b8015610a085780601f106109dd57610100808354040283529160200191610a08565b820191906000526020600020905b8154815290600101906020018083116109eb57829003601f168201915b50505050508152602001600182018054610a2190611e84565b80601f0160208091040260200160405190810160405280929190818152602001828054610a4d90611e84565b8015610a9a5780601f10610a6f57610100808354040283529160200191610a9a565b820191906000526020600020905b815481529060010190602001808311610a7d57829003601f168201915b5050505050815260200160028201548152602001600382018054610abd90611e84565b80601f0160208091040260200160405190810160405280929190818152602001828054610ae990611e84565b8015610b365780601f10610b0b57610100808354040283529160200191610b36565b820191906000526020600020905b815481529060010190602001808311610b1957829003601f168201915b5050509183525050600491909101546001600160a01b031660209182015281519082015160408301516060840151608090940151929b919a509850919650945092505050565b826001600160a01b0316336001600160a01b03167f83df18e098d358ae0f6b6f7da909199d688fafbb1de641ba484fd6f3e1aae7a98484604051610bc1929190611f0b565b60405180910390a3505050565b610bd833836110f8565b610bf45760405162461bcd60e51b815260040161052990611ebe565b610c008484848461144c565b50505050565b600a6020528160005260406000208181548110610c2257600080fd5b90600052602060002001600091509150505481565b6060610c428261102b565b60008281526006602052604081208054610c5b90611e84565b80601f0160208091040260200160405190810160405280929190818152602001828054610c8790611e84565b8015610cd45780601f10610ca957610100808354040283529160200191610cd4565b820191906000526020600020905b815481529060010190602001808311610cb757829003601f168201915b505050505090506000610cf260408051602081019091526000815290565b90508051600003610d04575092915050565b815115610d36578082604051602001610d1e929190611f39565b60405160208183030381529060405292505050919050565b610d3f8461147f565b949350505050565b336000908152600b602052604081205460ff16610db25760405162461bcd60e51b8152602060048201526024808201527f4e6f7420617574686f72697a656420746f2069737375652063657274696669636044820152636174657360e01b6064820152608401610529565b610dc0600880546001019055565b6000610dcb60085490565b9050610dd787826114f3565b610de1818461167e565b6040805160a08101825287815260208082018890524282840152606082018790526001600160a01b038a166080830152600084815260099091529190912081518190610e2d9082611fb6565b5060208201516001820190610e429082611fb6565b506040820151600282015560608201516003820190610e619082611fb6565b5060809190910151600490910180546001600160a01b0319166001600160a01b0392831617905587166000818152600a60209081526040808320805460018101825590845291909220018390555182907f55771991ffa371c9dd2db01cda7cd1f387b5c4799385b30ac842da0ba782451890610ee4908a908a9042908b90612075565b60405180910390a39695505050505050565b6001600160a01b0381166000908152600a6020908152604091829020805483518184028101840190945280845260609392830182828015610f5657602002820191906000526020600020905b815481526020019060010190808311610f42575b50505050509050919050565b610f6a6112da565b6001600160a01b038116610fcf5760405162461bcd60e51b815260206004820152602660248201527f4f776e61626c653a206e6577206f776e657220697320746865207a65726f206160448201526564647265737360d01b6064820152608401610529565b610fd881611334565b50565b60006001600160e01b031982166380ac58cd60e01b148061100c57506001600160e01b03198216635b5e139f60e01b145b806103f657506301ffc9a760e01b6001600160e01b03198316146103f6565b6000818152600260205260409020546001600160a01b0316610fd85760405162461bcd60e51b8152602060048201526018602482015277115490cdcc8c4e881a5b9d985b1a59081d1bdad95b88125160421b6044820152606401610529565b600081815260046020526040902080546001600160a01b0319166001600160a01b03841690811790915581906110bf82610647565b6001600160a01b03167f8c5be1e5ebec7d5bd14f71427d1e84f3dd0314c0f7b2291e5b200ac8c7c3b92560405160405180910390a45050565b60008061110483610647565b9050806001600160a01b0316846001600160a01b0316148061114b57506001600160a01b0380821660009081526005602090815260408083209388168352929052205460ff165b80610d3f5750836001600160a01b03166111648461048e565b6001600160a01b031614949350505050565b826001600160a01b031661118982610647565b6001600160a01b0316146111af5760405162461bcd60e51b8152600401610529906120bf565b6001600160a01b0382166112115760405162461bcd60e51b8152602060048201526024808201527f4552433732313a207472616e7366657220746f20746865207a65726f206164646044820152637265737360e01b6064820152608401610529565b826001600160a01b031661122482610647565b6001600160a01b03161461124a5760405162461bcd60e51b8152600401610529906120bf565b600081815260046020908152604080832080546001600160a01b03199081169091556001600160a01b0387811680865260038552838620805460001901905590871680865283862080546001019055868652600290945282852080549092168417909155905184937fddf252ad1be2c89b69c2b068fc378daa952ba7f163c4a11628f55a4df523b3ef91a4505050565b6007546001600160a01b0316331461090e5760405162461bcd60e51b815260206004820181905260248201527f4f776e61626c653a2063616c6c6572206973206e6f7420746865206f776e65726044820152606401610529565b600780546001600160a01b038381166001600160a01b0319831681179093556040519116919082907f8be0079c531659141344cd1fd0a4f28419497f9722a3daafe3b4186f6b6457e090600090a35050565b816001600160a01b0316836001600160a01b0316036113e75760405162461bcd60e51b815260206004820152601960248201527f4552433732313a20617070726f766520746f2063616c6c6572000000000000006044820152606401610529565b6001600160a01b03838116600081815260056020908152604080832094871680845294825291829020805460ff191686151590811790915591519182527f17307eab39ab6107e8899845ad3d59bd9653f200f220920489ca2b5937696c319101610bc1565b611457848484611176565b61146384848484611749565b610c005760405162461bcd60e51b815260040161052990612104565b606061148a8261102b565b60006114a160408051602081019091526000815290565b905060008151116114c157604051806020016040528060008152506114ec565b806114cb8461184a565b6040516020016114dc929190611f39565b6040516020818303038152906040525b9392505050565b6001600160a01b0382166115495760405162461bcd60e51b815260206004820181905260248201527f4552433732313a206d696e7420746f20746865207a65726f20616464726573736044820152606401610529565b6000818152600260205260409020546001600160a01b0316156115ae5760405162461bcd60e51b815260206004820152601c60248201527f4552433732313a20746f6b656e20616c7265616479206d696e746564000000006044820152606401610529565b6000818152600260205260409020546001600160a01b0316156116135760405162461bcd60e51b815260206004820152601c60248201527f4552433732313a20746f6b656e20616c7265616479206d696e746564000000006044820152606401610529565b6001600160a01b038216600081815260036020908152604080832080546001019055848352600290915280822080546001600160a01b0319168417905551839291907fddf252ad1be2c89b69c2b068fc378daa952ba7f163c4a11628f55a4df523b3ef908290a45050565b6000828152600260205260409020546001600160a01b03166116f95760405162461bcd60e51b815260206004820152602e60248201527f45524337323155524953746f726167653a2055524920736574206f66206e6f6e60448201526d32bc34b9ba32b73a103a37b5b2b760911b6064820152608401610529565b60008281526006602052604090206117118282611fb6565b506040518281527ff8e1a15aba9398e019f0b49df1a4fde98ee17ae345cb5f6b5e2c27f5033e8ce79060200160405180910390a15050565b60006001600160a01b0384163b1561183f57604051630a85bd0160e11b81526001600160a01b0385169063150b7a029061178d903390899088908890600401612156565b6020604051808303816000875af19250505080156117c8575060408051601f3d908101601f191682019092526117c591810190612193565b60015b611825573d8080156117f6576040519150601f19603f3d011682016040523d82523d6000602084013e6117fb565b606091505b50805160000361181d5760405162461bcd60e51b815260040161052990612104565b805181602001fd5b6001600160e01b031916630a85bd0160e11b149050610d3f565b506001949350505050565b60606000611857836118dd565b600101905060008167ffffffffffffffff81111561187757611877611b98565b6040519080825280601f01601f1916602001820160405280156118a1576020820181803683370190505b5090508181016020015b600019016f181899199a1a9b1b9c1cb0b131b232b360811b600a86061a8153600a85049450846118ab57509392505050565b60008072184f03e93ff9f4daa797ed6e38ed64bf6a1f0160401b831061191c5772184f03e93ff9f4daa797ed6e38ed64bf6a1f0160401b830492506040015b6d04ee2d6d415b85acef81000000008310611948576d04ee2d6d415b85acef8100000000830492506020015b662386f26fc10000831061196657662386f26fc10000830492506010015b6305f5e100831061197e576305f5e100830492506008015b612710831061199257612710830492506004015b606483106119a4576064830492506002015b600a83106103f65760010192915050565b6001600160e01b031981168114610fd857600080fd5b6000602082840312156119dd57600080fd5b81356114ec816119b5565b60005b83811015611a035781810151838201526020016119eb565b50506000910152565b60008151808452611a248160208601602086016119e8565b601f01601f19169290920160200192915050565b6020815260006114ec6020830184611a0c565b600060208284031215611a5d57600080fd5b5035919050565b80356001600160a01b0381168114611a7b57600080fd5b919050565b60008060408385031215611a9357600080fd5b611a9c83611a64565b946020939093013593505050565b600080600060608486031215611abf57600080fd5b611ac884611a64565b9250611ad660208501611a64565b929592945050506040919091013590565b600060208284031215611af957600080fd5b6114ec82611a64565b60a081526000611b1560a0830188611a0c565b8281036020840152611b278188611a0c565b90508560408401528281036060840152611b418186611a0c565b91505060018060a01b03831660808301529695505050505050565b60008060408385031215611b6f57600080fd5b611b7883611a64565b915060208301358015158114611b8d57600080fd5b809150509250929050565b634e487b7160e01b600052604160045260246000fd5b60008067ffffffffffffffff841115611bc957611bc9611b98565b50604051601f19601f85018116603f0116810181811067ffffffffffffffff82111715611bf857611bf8611b98565b604052838152905080828401851015611c1057600080fd5b83836020830137600060208583010152509392505050565b600082601f830112611c3957600080fd5b6114ec83833560208501611bae565b600080600060608486031215611c5d57600080fd5b611c6684611a64565b9250602084013567ffffffffffffffff811115611c8257600080fd5b611c8e86828701611c28565b925050604084013567ffffffffffffffff811115611cab57600080fd5b611cb786828701611c28565b9150509250925092565b60008060008060808587031215611cd757600080fd5b611ce085611a64565b9350611cee60208601611a64565b925060408501359150606085013567ffffffffffffffff811115611d1157600080fd5b8501601f81018713611d2257600080fd5b611d3187823560208401611bae565b91505092959194509250565b60008060408385031215611d5057600080fd5b611d5983611a64565b9150611d6760208401611a64565b90509250929050565b600080600080600060a08688031215611d8857600080fd5b611d9186611a64565b9450602086013567ffffffffffffffff811115611dad57600080fd5b611db988828901611c28565b945050604086013567ffffffffffffffff811115611dd657600080fd5b611de288828901611c28565b935050606086013567ffffffffffffffff811115611dff57600080fd5b611e0b88828901611c28565b925050608086013567ffffffffffffffff811115611e2857600080fd5b611e3488828901611c28565b9150509295509295909350565b602080825282518282018190526000918401906040840190835b81811015611e79578351835260209384019390920191600101611e5b565b509095945050505050565b600181811c90821680611e9857607f821691505b602082108103611eb857634e487b7160e01b600052602260045260246000fd5b50919050565b6020808252602d908201527f4552433732313a2063616c6c6572206973206e6f7420746f6b656e206f776e6560408201526c1c881bdc88185c1c1c9bdd9959609a1b606082015260800190565b604081526000611f1e6040830185611a0c565b8281036020840152611f308185611a0c565b95945050505050565b60008351611f4b8184602088016119e8565b835190830190611f5f8183602088016119e8565b01949350505050565b601f8211156105ca57806000526020600020601f840160051c81016020851015611f8f5750805b601f840160051c820191505b81811015611faf5760008155600101611f9b565b5050505050565b815167ffffffffffffffff811115611fd057611fd0611b98565b611fe481611fde8454611e84565b84611f68565b6020601f82116001811461201857600083156120005750848201515b600019600385901b1c1916600184901b178455611faf565b600084815260208120601f198516915b828110156120485787850151825560209485019460019092019101612028565b50848210156120665786840151600019600387901b60f8161c191681555b50505050600190811b01905550565b6080815260006120886080830187611a0c565b828103602084015261209a8187611a0c565b905084604084015282810360608401526120b48185611a0c565b979650505050505050565b60208082526025908201527f4552433732313a207472616e736665722066726f6d20696e636f72726563742060408201526437bbb732b960d91b606082015260800190565b60208082526032908201527f4552433732313a207472616e7366657220746f206e6f6e20455243373231526560408201527131b2b4bb32b91034b6b83632b6b2b73a32b960711b606082015260800190565b6001600160a01b038581168252841660208201526040810183905260806060820181905260009061218990830184611a0c565b9695505050505050565b6000602082840312156121a557600080fd5b81516114ec816119b556fea26469706673582212203a5bccea3aca596b33f95a3c020062865264981a44b609fed9f1e142f6cec9b264736f6c634300081c0033",
  "linkReferences": {},
  "deployedLinkReferences": {}
}