{
  "_format": "hh-sol-artifact-1",
  "contractName": "CertificateRegistry",
  "sourceName": "contracts/CertificateRegistry.sol",
  "abi": [
    {
      "anonymous": false,
      "inputs": [
        {
          "indexed": true,
          "internalType": "address",
          "name": "account",
          "type": "address"
        },
        {
          "indexed": false,
          "internalType": "enum CertificateRegistry.Role",
          "name": "role",
          "type": "uint8"
        }
      ],
      "name": "Registered",
      "type": "event"
    },
    {
      "inputs": [],
      "name": "PROVIDER_DATA_KEY",
      "outputs": [
        {
          "internalType": "bytes32",
          "name": "",
          "type": "bytes32"
        }
      ],
      "stateMutability": "view",
      "type": "function"
    },
    {
      "inputs": [],
      "name": "STUDENT_DATA_KEY",
      "outputs": [
        {
          "internalType": "bytes32",
          "name": "",
          "type": "bytes32"
        }
      ],
      "stateMutability": "view",
      "type": "function"
    },
    {
      "inputs": [],
      "name": "registerAsProvider",
      "outputs": [],
      "stateMutability": "nonpayable",
      "type": "function"
    },
    {
      "inputs": [
        {
          "internalType": "bytes32",
          "name": "studentIdHash",
          "type": "bytes32"
        }
      ],
      "name": "registerAsStudent",
      "outputs": [],
      "stateMutability": "nonpayable",
      "type": "function"
    },
    {
      "inputs": [
        {
          "internalType": "address",
          "name": "",
          "type": "address"
        }
      ],
      "name": "roles",
      "outputs": [
        {
          "internalType": "enum CertificateRegistry.Role",
          "name": "",
          "type": "uint8"
        }
      ],
      "stateMutability": "view",
      "type": "function"
    }
  ],
  "bytecode": "0x6080604052348015600f57600080fd5b506106578061001f6000396000f3fe608060405234801561001057600080fd5b50600436106100575760003560e01c80634adf53f41461005c5780635898fd631461007157806399374642146100ab578063b4d4dc05146100db578063f3f9dfdf146100e3575b600080fd5b61006f61006a3660046104b5565b61010a565b005b6100987fcca8575ab1e8123d663a74136dbbd0eae83f7a68284ee4d979c790afb650611281565b6040519081526020015b60405180910390f35b6100ce6100b93660046104ce565b60006020819052908152604090205460ff1681565b6040516100a29190610514565b61006f61031b565b6100987fa2988daf8d1349ef7f6c84222c2f9bba1a631f657048e529ab354fff6cf2cf7a81565b3360009081526020819052604081205460ff16600281111561012e5761012e6104fe565b146101755760405162461bcd60e51b8152602060048201526012602482015271105b1c9958591e481c9959da5cdd195c995960721b60448201526064015b60405180910390fd5b6040516354f6127f60e01b81527fa2988daf8d1349ef7f6c84222c2f9bba1a631f657048e529ab354fff6cf2cf7a6004820152339060009082906354f6127f90602401600060405180830381865afa1580156101d5573d6000803e3d6000fd5b505050506040513d6000823e601f3d908101601f191682016040526101fd9190810190610552565b905060008151116102475760405162461bcd60e51b815260206004820152601460248201527353747564656e742064617461206d697373696e6760601b604482015260640161016c565b6000838152600160205260409020546001600160a01b03161561029f5760405162461bcd60e51b815260206004820152601060248201526f29ba3ab232b73a1024a2103a30b5b2b760811b604482015260640161016c565b600083815260016020818152604080842080546001600160a01b0319166001600160a01b0388169081179091558085529184905292839020805460ff19168317905591517f89b4e995568c900aa52376cbed225dc1a013c9a43cb58186d69676ff593d7c4e9161030e91610514565b60405180910390a2505050565b3360009081526020819052604081205460ff16600281111561033f5761033f6104fe565b146103815760405162461bcd60e51b8152602060048201526012602482015271105b1c9958591e481c9959da5cdd195c995960721b604482015260640161016c565b6040516354f6127f60e01b81527fcca8575ab1e8123d663a74136dbbd0eae83f7a68284ee4d979c790afb65061126004820152339060009082906354f6127f90602401600060405180830381865afa1580156103e1573d6000803e3d6000fd5b505050506040513d6000823e601f3d908101601f191682016040526104099190810190610552565b905060008151116104545760405162461bcd60e51b815260206004820152601560248201527450726f76696465722064617461206d697373696e6760581b604482015260640161016c565b6001600160a01b03821660008181526020819052604090819020805460ff1916600290811790915590517f89b4e995568c900aa52376cbed225dc1a013c9a43cb58186d69676ff593d7c4e916104a991610514565b60405180910390a25050565b6000602082840312156104c757600080fd5b5035919050565b6000602082840312156104e057600080fd5b81356001600160a01b03811681146104f757600080fd5b9392505050565b634e487b7160e01b600052602160045260246000fd5b602081016003831061053657634e487b7160e01b600052602160045260246000fd5b91905290565b634e487b7160e01b600052604160045260246000fd5b60006020828403121561056457600080fd5b815167ffffffffffffffff81111561057b57600080fd5b8201601f8101841361058c57600080fd5b805167ffffffffffffffff8111156105a6576105a661053c565b604051601f8201601f19908116603f0116810167ffffffffffffffff811182821017156105d5576105d561053c565b6040528181528282016020018610156105ed57600080fd5b60005b8281101561060c576020818501810151838301820152016105f0565b5060009181016020019190915294935050505056fea2646970667358221220f0cc1cf65f4f423c45fc2089f11830cf9e1e182ebc8b3c490637e8f0718e1fd864736f6c634300081c0033",
  "linkReferences": {},
  "deployedLinkReferences": {}
}